{"contracts/LobbyFactory.sol":{"LobbyFactory":{"abi":[{"inputs":[],"stateMutability":"nonpayable","type":"constructor"},{"anonymous":false,"inputs":[{"indexed":true,"internalType":"address","name":"matchAddr","type":"address"},{"indexed":true,"internalType":"address","name":"creator","type":"address"},{"indexed":false,"internalType":"uint8","name":"maxPlayers","type":"uint8"},{"indexed":false,"internalType":"uint256","name":"entryFee","type":"uint256"}],"name":"MatchCreated","type":"event"},{"anonymous":false,"inputs":[{"indexed":true,"internalType":"address","name":"matchAddr","type":"address"},{"indexed":false,"internalType":"uint8","name":"status","type":"uint8"}],"name":"MatchStatusChanged","type":"event"},{"inputs":[{"internalType":"uint256","name":"","type":"uint256"}],"name":"allMatches","outputs":[{"internalType":"address","name":"","type":"address"}],"stateMutability":"view","type":"function"},{"inputs":[{"internalType":"address","name":"matchAddr","type":"address"}],"name":"cancelMatch","outputs":[],"stateMutability":"nonpayable","type":"function"},{"inputs":[{"internalType":"uint8","name":"_maxPlayers","type":"uint8"},{"internalType":"uint256","name":"_entryFee","type":"uint256"}],"name":"createMatch","outputs":[{"internalType":"address","name":"matchAddr","type":"address"}],"stateMutability":"payable","type":"function"},{"inputs":[{"internalType":"address","name":"matchAddr","type":"address"}],"name":"getMatchInfo","outputs":[{"internalType":"address","name":"_creator","type":"address"},{"internalType":"uint8","name":"_maxPlayers","type":"uint8"},{"internalType":"uint256","name":"_entryFee","type":"uint256"},{"internalType":"uint8","name":"_status","type":"uint8"},{"internalType":"uint256","name":"_playerCount","type":"uint256"},{"internalType":"uint256","name":"_prizePool","type":"uint256"}],"stateMutability":"view","type":"function"},{"inputs":[{"internalType":"uint256","name":"offset","type":"uint256"},{"internalType":"uint256","name":"limit","type":"uint256"}],"name":"getMatches","outputs":[{"internalType":"address[]","name":"","type":"address[]"}],"stateMutability":"view","type":"function"},{"inputs":[],"name":"getOpenMatches","outputs":[{"internalType":"address[]","name":"","type":"address[]"}],"stateMutability":"view","type":"function"},{"inputs":[{"internalType":"address","name":"","type":"address"}],"name":"isMatch","outputs":[{"internalType":"bool","name":"","type":"bool"}],"stateMutability":"view","type":"function"},{"inputs":[],"name":"matchCount","outputs":[{"internalType":"uint256","name":"","type":"uint256"}],"stateMutability":"view","type":"function"},{"inputs":[],"name":"owner","outputs":[{"internalType":"address","name":"","type":"address"}],"stateMutability":"view","type":"function"},{"inputs":[{"internalType":"address","name":"matchAddr","type":"address"},{"internalType":"address[]","name":"_players","type":"address[]"},{"internalType":"uint256[]","name":"_scores","type":"uint256[]"}],"name":"submitResults","outputs":[],"stateMutability":"nonpayable","type":"function"}],"evm":{"bytecode":{"linkReferences":{},"object":"608060405234801561001057600080fd5b50600080546001600160a01b03191633179055612bdd806100326000396000f3fe6080604052600436106200009d5760003560e01c80638da5cb5b11620000605780638da5cb5b146200019c5780639c4e132914620001d7578063afa71d1114620001ee578063bd09e8fa1462000213578063e22c435e146200025857600080fd5b8063189373f014620000a25780632345574b1462000109578063554bfee214620001305780635b294a37146200015757806379c4264b146200017c575b600080fd5b348015620000af57600080fd5b50620000c7620000c136600462000c61565b6200027d565b604080516001600160a01b03909716875260ff958616602088015286019390935292166060840152608083019190915260a082015260c0015b60405180910390f35b3480156200011657600080fd5b506200012e6200012836600462000c61565b62000344565b005b3480156200013d57600080fd5b5062000148620004d8565b60405162000100919062000c88565b3480156200016457600080fd5b506200012e6200017636600462000d26565b62000747565b3480156200018957600080fd5b5060015460405190815260200162000100565b348015620001a957600080fd5b50600054620001be906001600160a01b031681565b6040516001600160a01b03909116815260200162000100565b620001be620001e836600462000dc2565b620008f2565b348015620001fb57600080fd5b50620001be6200020d36600462000df1565b62000aeb565b3480156200022057600080fd5b50620002476200023236600462000c61565b60026020526000908152604090205460ff1681565b604051901515815260200162000100565b3480156200026557600080fd5b50620001486200027736600462000e0b565b62000b16565b6001600160a01b0381166000908152600260205260408120548190819081908190819060ff16620002cb5760405162461bcd60e51b8152600401620002c29062000e2e565b60405180910390fd5b866001600160a01b0316635a9b0b896040518163ffffffff1660e01b815260040160c060405180830381865afa1580156200030a573d6000803e3d6000fd5b505050506040513d601f19601f8201168201806040525081019062000330919062000e55565b949c939b5091995097509550909350915050565b6000546001600160a01b031633146200038c5760405162461bcd60e51b81526020600482015260096024820152682737ba1037bbb732b960b91b6044820152606401620002c2565b6001600160a01b03811660009081526002602052604090205460ff16620003c75760405162461bcd60e51b8152600401620002c29062000e2e565b806001600160a01b031663ea8a1af06040518163ffffffff1660e01b8152600401600060405180830381600087803b1580156200040357600080fd5b505af115801562000418573d6000803e3d6000fd5b50505050806001600160a01b03167fe444b77086c06ab88dc5c3d90e42c61106f1dde499d608d012b7e8a6a2b9b49d826001600160a01b031663200d2ed26040518163ffffffff1660e01b8152600401602060405180830381865afa15801562000486573d6000803e3d6000fd5b505050506040513d601f19601f82011682018060405250810190620004ac919062000ec5565b6003811115620004c057620004c062000ee8565b60405160ff909116815260200160405180910390a250565b6001546060906000805b82811015620005b75760006001828154811062000503576200050362000efe565b6000918252602091829020015460408051631006976960e11b815290516001600160a01b039092169263200d2ed2926004808401938290030181865afa15801562000552573d6000803e3d6000fd5b505050506040513d601f19601f8201168201806040525081019062000578919062000ec5565b60038111156200058c576200058c62000ee8565b03620005a257816200059e8162000f2a565b9250505b80620005ae8162000f2a565b915050620004e2565b5060008167ffffffffffffffff811115620005d657620005d662000f46565b60405190808252806020026020018201604052801562000600578160200160208202803683370190505b5090506000805b848110156200073d5760006001828154811062000628576200062862000efe565b6000918252602091829020015460408051631006976960e11b815290516001600160a01b039092169263200d2ed2926004808401938290030181865afa15801562000677573d6000803e3d6000fd5b505050506040513d601f19601f820116820180604052508101906200069d919062000ec5565b6003811115620006b157620006b162000ee8565b03620007285760018181548110620006cd57620006cd62000efe565b9060005260206000200160009054906101000a90046001600160a01b031683838151811062000700576200070062000efe565b6001600160a01b039092166020928302919091019091015281620007248162000f2a565b9250505b80620007348162000f2a565b91505062000607565b5090949350505050565b6000546001600160a01b031633146200078f5760405162461bcd60e51b81526020600482015260096024820152682737ba1037bbb732b960b91b6044820152606401620002c2565b6001600160a01b03851660009081526002602052604090205460ff16620007ca5760405162461bcd60e51b8152600401620002c29062000e2e565b604051634b556cf960e01b81526001600160a01b03861690634b556cf990620007fe90879087908790879060040162000f5c565b600060405180830381600087803b1580156200081957600080fd5b505af11580156200082e573d6000803e3d6000fd5b50505050846001600160a01b03167fe444b77086c06ab88dc5c3d90e42c61106f1dde499d608d012b7e8a6a2b9b49d866001600160a01b031663200d2ed26040518163ffffffff1660e01b8152600401602060405180830381865afa1580156200089c573d6000803e3d6000fd5b505050506040513d601f19601f82011682018060405250810190620008c2919062000ec5565b6003811115620008d657620008d662000ee8565b60405160ff909116815260200160405180910390a25050505050565b6000813414620009455760405162461bcd60e51b815260206004820152601d60248201527f6d73672e76616c7565206d75737420657175616c20656e7472794665650000006044820152606401620002c2565b600082116200098f5760405162461bcd60e51b81526020600482015260156024820152740456e74727920666565206d757374206265203e203605c1b6044820152606401620002c2565b6000338484604051620009a29062000c3a565b6001600160a01b03909316835260ff90911660208301526040820152606001604051809103906000f080158015620009de573d6000803e3d6000fd5b506001805480820182557fb10e2d527612073b26eecdfd717e6a320cf44b4afac2b0732d9fcbe2b7fa0cf60180546001600160a01b0319166001600160a01b03841690811790915560008181526002602052604090819020805460ff19169093179092559051636b7c1c3b60e11b81523360048201529193508392509063d6f838769034906024016000604051808303818588803b15801562000a8057600080fd5b505af115801562000a95573d6000803e3d6000fd5b50506040805160ff89168152602081018890523394506001600160a01b03871693507fb92163811f4bc5e47ecaae65418fa7c7e8906209b9b4d2e0042fa00dcc5198d792500160405180910390a3505b92915050565b6001818154811062000afc57600080fd5b6000918252602090912001546001600160a01b0316905081565b60015460609080841062000b3b57505060408051600081526020810190915262000ae5565b600062000b49848662000fdf565b90508181111562000b575750805b600062000b65868362000ff5565b67ffffffffffffffff81111562000b805762000b8062000f46565b60405190808252806020026020018201604052801562000baa578160200160208202803683370190505b509050855b8281101562000c30576001818154811062000bce5762000bce62000efe565b6000918252602090912001546001600160a01b03168262000bf0898462000ff5565b8151811062000c035762000c0362000efe565b6001600160a01b03909216602092830291909101909101528062000c278162000f2a565b91505062000baf565b5095945050505050565b611b9c806200100c83390190565b6001600160a01b038116811462000c5e57600080fd5b50565b60006020828403121562000c7457600080fd5b813562000c818162000c48565b9392505050565b6020808252825182820181905260009190848201906040850190845b8181101562000ccb5783516001600160a01b03168352928401929184019160010162000ca4565b50909695505050505050565b60008083601f84011262000cea57600080fd5b50813567ffffffffffffffff81111562000d0357600080fd5b6020830191508360208260051b850101111562000d1f57600080fd5b9250929050565b60008060008060006060868803121562000d3f57600080fd5b853562000d4c8162000c48565b9450602086013567ffffffffffffffff8082111562000d6a57600080fd5b62000d7889838a0162000cd7565b9096509450604088013591508082111562000d9257600080fd5b5062000da18882890162000cd7565b969995985093965092949392505050565b60ff8116811462000c5e57600080fd5b6000806040838503121562000dd657600080fd5b823562000de38162000db2565b946020939093013593505050565b60006020828403121562000e0457600080fd5b5035919050565b6000806040838503121562000e1f57600080fd5b50508035926020909101359150565b6020808252600d908201526c0aadcd6dcdeeedc40dac2e8c6d609b1b604082015260600190565b60008060008060008060c0878903121562000e6f57600080fd5b865162000e7c8162000c48565b602088015190965062000e8f8162000db2565b60408801516060890151919650945062000ea98162000db2565b809350506080870151915060a087015190509295509295509295565b60006020828403121562000ed857600080fd5b81516004811062000c8157600080fd5b634e487b7160e01b600052602160045260246000fd5b634e487b7160e01b600052603260045260246000fd5b634e487b7160e01b600052601160045260246000fd5b60006001820162000f3f5762000f3f62000f14565b5060010190565b634e487b7160e01b600052604160045260246000fd5b6040808252810184905260008560608301825b8781101562000fa357823562000f858162000c48565b6001600160a01b031682526020928301929091019060010162000f6f565b5083810360208501528481526001600160fb1b0385111562000fc457600080fd5b8460051b915081866020830137016020019695505050505050565b8082018082111562000ae55762000ae562000f14565b8181038181111562000ae55762000ae562000f1456fe6101006040523480156200001257600080fd5b5060405162001b9c38038062001b9c833981016040819052620000359162000175565b6001600160a01b038316620000805760405162461bcd60e51b815260206004820152600c60248201526b2d32b9379031b932b0ba37b960a11b60448201526064015b60405180910390fd5b8160ff16600214806200009657508160ff166004145b80620000a557508160ff166008145b80620000b457508160ff166010145b620000f75760405162461bcd60e51b8152602060048201526012602482015271496e76616c6964206d6178506c617965727360701b604482015260640162000077565b60008111620001495760405162461bcd60e51b815260206004820152601560248201527f456e74727920666565206d757374206265203e20300000000000000000000000604482015260640162000077565b336080526001600160a01b039290921660a05260ff1660c05260e0526000805460ff19169055620001cd565b6000806000606084860312156200018b57600080fd5b83516001600160a01b0381168114620001a357600080fd5b602085015190935060ff81168114620001bb57600080fd5b80925050604084015190509250925092565b60805160a05160c05160e05161193a620002626000396000818161017101528181610b7401528181610e6901528181610f34015261151101526000818161027e0152818161084901528181610b53015281816114b501526115ff01526000818161012001528181610b320152610cb5015260008181610380015281816103f501528181610c420152610ce7015261193a6000f3fe6080604052600436106101025760003560e01c80635a9b0b8911610095578063b688a36311610064578063b688a36314610366578063c45a01551461036e578063d6f83876146103a2578063ea8a1af0146103b5578063f71d96cb146103ca57600080fd5b80635a9b0b89146102b2578063719ce73e1461030457806376dd110f146103175780638b5b9ccc1461034457600080fd5b8063200d2ed2116100d1578063200d2ed21461020e578063302bcc57146102355780634b556cf91461024a5780634c2412a21461026c57600080fd5b806302d05d3f1461010e578063072ea61c1461015f5780630b7e9c44146101a157806310eb0e0e146101ce57600080fd5b3661010957005b600080fd5b34801561011a57600080fd5b506101427f000000000000000000000000000000000000000000000000000000000000000081565b6040516001600160a01b0390911681526020015b60405180910390f35b34801561016b57600080fd5b506101937f000000000000000000000000000000000000000000000000000000000000000081565b604051908152602001610156565b3480156101ad57600080fd5b506101936101bc36600461165e565b60046020526000908152604090205481565b3480156101da57600080fd5b506101fe6101e936600461165e565b60026020526000908152604090205460ff1681565b6040519015158152602001610156565b34801561021a57600080fd5b506000546102289060ff1681565b604051610156919061169d565b34801561024157600080fd5b50600154610193565b34801561025657600080fd5b5061026a610265366004611711565b6103ea565b005b34801561027857600080fd5b506102a07f000000000000000000000000000000000000000000000000000000000000000081565b60405160ff9091168152602001610156565b3480156102be57600080fd5b506102c7610b27565b604080516001600160a01b03909716875260ff958616602088015286019390935292166060840152608083019190915260a082015260c001610156565b34801561031057600080fd5b5047610193565b34801561032357600080fd5b5061019361033236600461165e565b60036020526000908152604090205481565b34801561035057600080fd5b50610359610bc9565b60405161015691906117c1565b61026a610c2b565b34801561037a57600080fd5b506101427f000000000000000000000000000000000000000000000000000000000000000081565b61026a6103b036600461165e565b610c37565b3480156103c157600080fd5b5061026a610caa565b3480156103d657600080fd5b506101426103e53660046117d4565b610f7f565b336001600160a01b037f000000000000000000000000000000000000000000000000000000000000000016146104555760405162461bcd60e51b815260206004820152600b60248201526a4e6f7420666163746f727960a81b60448201526064015b60405180910390fd5b600160005460ff16600381111561046e5761046e611687565b146104ad5760405162461bcd60e51b815260206004820152600f60248201526e4e6f7420696e2070726f677265737360881b604482015260640161044c565b60015483146104f65760405162461bcd60e51b81526020600482015260156024820152740a0d8c2f2cae440c6deeadce840dad2e6dac2e8c6d605b1b604482015260640161044c565b80831461053c5760405162461bcd60e51b81526020600482015260146024820152730a6c6dee4ca40c6deeadce840dad2e6dac2e8c6d60631b604482015260640161044c565b60005b8381101561063c576002600086868481811061055d5761055d6117ed565b9050602002016020810190610572919061165e565b6001600160a01b0316815260208101919091526040016000205460ff166105cc5760405162461bcd60e51b815260206004820152600e60248201526d2ab735b737bbb710383630bcb2b960911b604482015260640161044c565b8282828181106105de576105de6117ed565b90506020020135600360008787858181106105fb576105fb6117ed565b9050602002016020810190610610919061165e565b6001600160a01b031681526020810191909152604001600020558061063481611819565b91505061053f565b5060008367ffffffffffffffff81111561065857610658611832565b604051908082528060200260200182016040528015610681578160200160208202803683370190505b50905060005b848110156106f2578585828181106106a1576106a16117ed565b90506020020160208101906106b6919061165e565b8282815181106106c8576106c86117ed565b6001600160a01b0390921660209283029190910190910152806106ea81611819565b915050610687565b5060005b815181101561083b57600061070c826001611848565b90505b8251811015610828576003600084848151811061072e5761072e6117ed565b60200260200101516001600160a01b03166001600160a01b03168152602001908152602001600020546003600085848151811061076d5761076d6117ed565b60200260200101516001600160a01b03166001600160a01b03168152602001908152602001600020541115610816578281815181106107ae576107ae6117ed565b60200260200101518383815181106107c8576107c86117ed565b60200260200101518484815181106107e2576107e26117ed565b602002602001018584815181106107fb576107fb6117ed565b6001600160a01b039384166020918202929092010152911690525b8061082081611819565b91505061070f565b508061083381611819565b9150506106f6565b506000479050600061086f827f00000000000000000000000000000000000000000000000000000000000000008551610fa9565b905060005b835181101561091a578151811080156108a65750600082828151811061089c5761089c6117ed565b6020026020010151115b15610908578181815181106108bd576108bd6117ed565b6020026020010151600460008684815181106108db576108db6117ed565b60200260200101516001600160a01b03166001600160a01b03168152602001908152602001600020819055505b8061091281611819565b915050610874565b506000805460ff191660021790556040517f2e5f0bf3d507ccf88adf4c4e85d98916ff3bb6f2128331f35f79aa18a080d8b69061095a9085908490611861565b60405180910390a160005b8351811015610b1d57600060046000868481518110610986576109866117ed565b60200260200101516001600160a01b03166001600160a01b031681526020019081526020016000205490506000811115610b0a576000600460008785815181106109d2576109d26117ed565b60200260200101516001600160a01b03166001600160a01b03168152602001908152602001600020819055506000858381518110610a1257610a126117ed565b60200260200101516001600160a01b03168260405160006040518083038185875af1925050503d8060008114610a64576040519150601f19603f3d011682016040523d82523d6000602084013e610a69565b606091505b5050905080610aac5760405162461bcd60e51b815260206004820152600f60248201526e151c985b9cd9995c8819985a5b1959608a1b604482015260640161044c565b858381518110610abe57610abe6117ed565b60200260200101516001600160a01b03167f7084f5476618d8e60b11ef0d7d3f06914655adb8793e28ff7f018d4c76d505d583604051610b0091815260200190565b60405180910390a2505b5080610b1581611819565b915050610965565b5050505050505050565b6000806000806000807f00000000000000000000000000000000000000000000000000000000000000007f00000000000000000000000000000000000000000000000000000000000000007f000000000000000000000000000000000000000000000000000000000000000060008054906101000a900460ff166003811115610bb257610bb2611687565b600154939a92995090975095509093504792509050565b60606001805480602002602001604051908101604052809291908181526020018280548015610c2157602002820191906000526020600020905b81546001600160a01b03168152600190910190602001808311610c03575b5050505050905090565b610c353334611404565b565b336001600160a01b037f00000000000000000000000000000000000000000000000000000000000000001614610c9d5760405162461bcd60e51b815260206004820152600b60248201526a4e6f7420666163746f727960a81b604482015260640161044c565b610ca78134611404565b50565b336001600160a01b037f0000000000000000000000000000000000000000000000000000000000000000161480610d095750336001600160a01b037f000000000000000000000000000000000000000000000000000000000000000016145b610d465760405162461bcd60e51b815260206004820152600e60248201526d139bdd08185d5d1a1bdc9a5e995960921b604482015260640161044c565b6000805460ff166003811115610d5e57610d5e611687565b1480610d805750600160005460ff166003811115610d7e57610d7e611687565b145b610dbc5760405162461bcd60e51b815260206004820152600d60248201526c10d85b9b9bdd0818d85b98d95b609a1b604482015260640161044c565b6000805460ff191660031781556040517f50551f1cb04e981d3d0ae00631c75baff563f41fcc0f34befba8e94ce7aa0a959190a160005b600154811015610ca757600060018281548110610e1257610e126117ed565b60009182526020808320909101546001600160a01b0316808352600290915260409091205490915060ff1615610f6c576001600160a01b038116600081815260026020526040808220805460ff19169055519091907f0000000000000000000000000000000000000000000000000000000000000000908381818185875af1925050503d8060008114610ec1576040519150601f19603f3d011682016040523d82523d6000602084013e610ec6565b606091505b5050905080610f075760405162461bcd60e51b815260206004820152600d60248201526c1499599d5b990819985a5b1959609a1b604482015260640161044c565b816001600160a01b03167f7084f5476618d8e60b11ef0d7d3f06914655adb8793e28ff7f018d4c76d505d57f0000000000000000000000000000000000000000000000000000000000000000604051610f6291815260200190565b60405180910390a2505b5080610f7781611819565b915050610df3565b60018181548110610f8f57600080fd5b6000918252602090912001546001600160a01b0316905081565b6060808360ff16600203610ffc5760408051600180825281830190925290602080830190803683370190505090508481600081518110610feb57610feb6117ed565b6020026020010181815250506112dc565b8360ff16600403611096576040805160028082526060820183529091602083019080368337019050509050606461103486603c6118b8565b61103e91906118cf565b81600081518110611051576110516117ed565b60200260200101818152505080600081518110611070576110706117ed565b60200260200101518561108391906118f1565b81600181518110610feb57610feb6117ed565b8360ff1660080361118b5760408051600380825260808201909252906020820160608036833701905050905060646110cf8660326118b8565b6110d991906118cf565b816000815181106110ec576110ec6117ed565b6020908102919091010152606461110486601e6118b8565b61110e91906118cf565b81600181518110611121576111216117ed565b60200260200101818152505080600181518110611140576111406117ed565b60200260200101518160008151811061115b5761115b6117ed565b60200260200101518661116e91906118f1565b61117891906118f1565b81600281518110610feb57610feb6117ed565b60408051600480825260a08201909252906020820160808036833701905050905060646111b98660286118b8565b6111c391906118cf565b816000815181106111d6576111d66117ed565b602090810291909101015260646111ee8660196118b8565b6111f891906118cf565b8160018151811061120b5761120b6117ed565b602090810291909101015260646112238660146118b8565b61122d91906118cf565b81600281518110611240576112406117ed565b6020026020010181815250508060028151811061125f5761125f6117ed565b60200260200101518160018151811061127a5761127a6117ed565b602002602001015182600081518110611295576112956117ed565b6020026020010151876112a891906118f1565b6112b291906118f1565b6112bc91906118f1565b816003815181106112cf576112cf6117ed565b6020026020010181815250505b80518360ff1610156113fa5760008360ff1667ffffffffffffffff81111561130657611306611832565b60405190808252806020026020018201604052801561132f578160200160208202803683370190505b5090506000805b8560ff168110156113b257838181518110611353576113536117ed565b602002602001015183828151811061136d5761136d6117ed565b60200260200101818152505083818151811061138b5761138b6117ed565b60200260200101518261139e9190611848565b9150806113aa81611819565b915050611336565b50808711156113f0576113c581886118f1565b826000815181106113d8576113d86117ed565b602002602001018181516113ec9190611848565b9052505b5091506113fd9050565b90505b9392505050565b6000805460ff16600381111561141c5761141c611687565b146114545760405162461bcd60e51b81526020600482015260086024820152672737ba1037b832b760c11b604482015260640161044c565b6001600160a01b03821660009081526002602052604090205460ff16156114ae5760405162461bcd60e51b815260206004820152600e60248201526d105b1c9958591e481a9bda5b995960921b604482015260640161044c565b60015460ff7f0000000000000000000000000000000000000000000000000000000000000000161161150f5760405162461bcd60e51b815260206004820152600a60248201526913585d18da08199d5b1b60b21b604482015260640161044c565b7f000000000000000000000000000000000000000000000000000000000000000081146115705760405162461bcd60e51b815260206004820152600f60248201526e57726f6e6720656e7472792066656560881b604482015260640161044c565b6001600160a01b038216600081815260026020526040808220805460ff19166001908117909155805480820182559083527fb10e2d527612073b26eecdfd717e6a320cf44b4afac2b0732d9fcbe2b7fa0cf60180546001600160a01b03191684179055517f31e760aa525306aba638a784082a013b6a1cc0a9a1789f3f22281c0453b10b1f9190a260015460ff7f000000000000000000000000000000000000000000000000000000000000000016900361165a576000805460ff191660011781556040517faa227b1595385e073aaa86fb89b56070b22b7f4fe69c10dfd6f627e8c42d009c9190a15b5050565b60006020828403121561167057600080fd5b81356001600160a01b03811681146113fd57600080fd5b634e487b7160e01b600052602160045260246000fd5b60208101600483106116bf57634e487b7160e01b600052602160045260246000fd5b91905290565b60008083601f8401126116d757600080fd5b50813567ffffffffffffffff8111156116ef57600080fd5b6020830191508360208260051b850101111561170a57600080fd5b9250929050565b6000806000806040858703121561172757600080fd5b843567ffffffffffffffff8082111561173f57600080fd5b61174b888389016116c5565b9096509450602087013591508082111561176457600080fd5b50611771878288016116c5565b95989497509550505050565b600081518084526020808501945080840160005b838110156117b65781516001600160a01b031687529582019590820190600101611791565b509495945050505050565b6020815260006113fd602083018461177d565b6000602082840312156117e657600080fd5b5035919050565b634e487b7160e01b600052603260045260246000fd5b634e487b7160e01b600052601160045260246000fd5b60006001820161182b5761182b611803565b5060010190565b634e487b7160e01b600052604160045260246000fd5b8082018082111561185b5761185b611803565b92915050565b604081526000611874604083018561177d565b82810360208481019190915284518083528582019282019060005b818110156118ab5784518352938301939183019160010161188f565b5090979650505050505050565b808202811582820484141761185b5761185b611803565b6000826118ec57634e487b7160e01b600052601260045260246000fd5b500490565b8181038181111561185b5761185b61180356fea26469706673582212203dc0ad4cea523abe84b943052f40f189ef7888e1b9257a472ec93520b555dc9b64736f6c63430008140033a2646970667358221220b480a7596605c5540f524d657f5e602f0ab708e0ea455e67e4e25fb23f44e9c064736f6c63430008140033","opcodes":"PUSH1 0x80 PUSH1 0x40 MSTORE CALLVALUE DUP1 ISZERO PUSH2 0x10 JUMPI PUSH1 0x0 DUP1 REVERT JUMPDEST POP PUSH1 0x0 DUP1 SLOAD PUSH1 0x1 PUSH1 0x1 PUSH1 0xA0 SHL SUB NOT AND CALLER OR SWAP1 SSTORE PUSH2 0x2BDD DUP1 PUSH2 0x32 PUSH1 0x0 CODECOPY PUSH1 0x0 RETURN INVALID PUSH1 0x80 PUSH1 0x40 MSTORE PUSH1 0x4 CALLDATASIZE LT PUSH3 0x9D JUMPI PUSH1 0x0 CALLDATALOAD PUSH1 0xE0 SHR DUP1 PUSH4 0x8DA5CB5B GT PUSH3 0x60 JUMPI DUP1 PUSH4 0x8DA5CB5B EQ PUSH3 0x19C JUMPI DUP1 PUSH4 0x9C4E1329 EQ PUSH3 0x1D7 JUMPI DUP1 PUSH4 0xAFA71D11 EQ PUSH3 0x1EE JUMPI DUP1 PUSH4 0xBD09E8FA EQ PUSH3 0x213 JUMPI DUP1 PUSH4 0xE22C435E EQ PUSH3 0x258 JUMPI PUSH1 0x0 DUP1 REVERT JUMPDEST DUP1 PUSH4 0x189373F0 EQ PUSH3 0xA2 JUMPI DUP1 PUSH4 0x2345574B EQ PUSH3 0x109 JUMPI DUP1 PUSH4 0x554BFEE2 EQ PUSH3 0x130 JUMPI DUP1 PUSH4 0x5B294A37 EQ PUSH3 0x157 JUMPI DUP1 PUSH4 0x79C4264B EQ PUSH3 0x17C JUMPI JUMPDEST PUSH1 0x0 DUP1 REVERT JUMPDEST CALLVALUE DUP1 ISZERO PUSH3 0xAF JUMPI PUSH1 0x0 DUP1 REVERT JUMPDEST POP PUSH3 0xC7 PUSH3 0xC1 CALLDATASIZE PUSH1 0x4 PUSH3 0xC61 JUMP JUMPDEST PUSH3 0x27D JUMP JUMPDEST PUSH1 0x40 DUP1 MLOAD PUSH1 0x1 PUSH1 0x1 PUSH1 0xA0 SHL SUB SWAP1 SWAP8 AND DUP8 MSTORE PUSH1 0xFF SWAP6 DUP7 AND PUSH1 0x20 DUP9 ADD MSTORE DUP7 ADD SWAP4 SWAP1 SWAP4 MSTORE SWAP3 AND PUSH1 0x60 DUP5 ADD MSTORE PUSH1 0x80 DUP4 ADD SWAP2 SWAP1 SWAP2 MSTORE PUSH1 0xA0 DUP3 ADD MSTORE PUSH1 0xC0 ADD JUMPDEST PUSH1 0x40 MLOAD DUP1 SWAP2 SUB SWAP1 RETURN JUMPDEST CALLVALUE DUP1 ISZERO PUSH3 0x116 JUMPI PUSH1 0x0 DUP1 REVERT JUMPDEST POP PUSH3 0x12E PUSH3 0x128 CALLDATASIZE PUSH1 0x4 PUSH3 0xC61 JUMP JUMPDEST PUSH3 0x344 JUMP JUMPDEST STOP JUMPDEST CALLVALUE DUP1 ISZERO PUSH3 0x13D JUMPI PUSH1 0x0 DUP1 REVERT JUMPDEST POP PUSH3 0x148 PUSH3 0x4D8 JUMP JUMPDEST PUSH1 0x40 MLOAD PUSH3 0x100 SWAP2 SWAP1 PUSH3 0xC88 JUMP JUMPDEST CALLVALUE DUP1 ISZERO PUSH3 0x164 JUMPI PUSH1 0x0 DUP1 REVERT JUMPDEST POP PUSH3 0x12E PUSH3 0x176 CALLDATASIZE PUSH1 0x4 PUSH3 0xD26 JUMP JUMPDEST PUSH3 0x747 JUMP JUMPDEST CALLVALUE DUP1 ISZERO PUSH3 0x189 JUMPI PUSH1 0x0 DUP1 REVERT JUMPDEST POP PUSH1 0x1 SLOAD PUSH1 0x40 MLOAD SWAP1 DUP2 MSTORE PUSH1 0x20 ADD PUSH3 0x100 JUMP JUMPDEST CALLVALUE DUP1 ISZERO PUSH3 0x1A9 JUMPI PUSH1 0x0 DUP1 REVERT JUMPDEST POP PUSH1 0x0 SLOAD PUSH3 0x1BE SWAP1 PUSH1 0x1 PUSH1 0x1 PUSH1 0xA0 SHL SUB AND DUP2 JUMP JUMPDEST PUSH1 0x40 MLOAD PUSH1 0x1 PUSH1 0x1 PUSH1 0xA0 SHL SUB SWAP1 SWAP2 AND DUP2 MSTORE PUSH1 0x20 ADD PUSH3 0x100 JUMP JUMPDEST PUSH3 0x1BE PUSH3 0x1E8 CALLDATASIZE PUSH1 0x4 PUSH3 0xDC2 JUMP JUMPDEST PUSH3 0x8F2 JUMP JUMPDEST CALLVALUE DUP1 ISZERO PUSH3 0x1FB JUMPI PUSH1 0x0 DUP1 REVERT JUMPDEST POP PUSH3 0x1BE PUSH3 0x20D CALLDATASIZE PUSH1 0x4 PUSH3 0xDF1 JUMP JUMPDEST PUSH3 0xAEB JUMP JUMPDEST CALLVALUE DUP1 ISZERO PUSH3 0x220 JUMPI PUSH1 0x0 DUP1 REVERT JUMPDEST POP PUSH3 0x247 PUSH3 0x232 CALLDATASIZE PUSH1 0x4 PUSH3 0xC61 JUMP JUMPDEST PUSH1 0x2 PUSH1 0x20 MSTORE PUSH1 0x0 SWAP1 DUP2 MSTORE PUSH1 0x40 SWAP1 KECCAK256 SLOAD PUSH1 0xFF AND DUP2 JUMP JUMPDEST PUSH1 0x40 MLOAD SWAP1 ISZERO ISZERO DUP2 MSTORE PUSH1 0x20 ADD PUSH3 0x100 JUMP JUMPDEST CALLVALUE DUP1 ISZERO PUSH3 0x265 JUMPI PUSH1 0x0 DUP1 REVERT JUMPDEST POP PUSH3 0x148 PUSH3 0x277 CALLDATASIZE PUSH1 0x4 PUSH3 0xE0B JUMP JUMPDEST PUSH3 0xB16 JUMP JUMPDEST PUSH1 0x1 PUSH1 0x1 PUSH1 0xA0 SHL SUB DUP2 AND PUSH1 0x0 SWAP1 DUP2 MSTORE PUSH1 0x2 PUSH1 0x20 MSTORE PUSH1 0x40 DUP2 KECCAK256 SLOAD DUP2 SWAP1 DUP2 SWAP1 DUP2 SWAP1 DUP2 SWAP1 DUP2 SWAP1 PUSH1 0xFF AND PUSH3 0x2CB JUMPI PUSH1 0x40 MLOAD PUSH3 0x461BCD PUSH1 0xE5 SHL DUP2 MSTORE PUSH1 0x4 ADD PUSH3 0x2C2 SWAP1 PUSH3 0xE2E JUMP JUMPDEST PUSH1 0x40 MLOAD DUP1 SWAP2 SUB SWAP1 REVERT JUMPDEST DUP7 PUSH1 0x1 PUSH1 0x1 PUSH1 0xA0 SHL SUB AND PUSH4 0x5A9B0B89 PUSH1 0x40 MLOAD DUP2 PUSH4 0xFFFFFFFF AND PUSH1 0xE0 SHL DUP2 MSTORE PUSH1 0x4 ADD PUSH1 0xC0 PUSH1 0x40 MLOAD DUP1 DUP4 SUB DUP2 DUP7 GAS STATICCALL ISZERO DUP1 ISZERO PUSH3 0x30A JUMPI RETURNDATASIZE PUSH1 0x0 DUP1 RETURNDATACOPY RETURNDATASIZE PUSH1 0x0 REVERT JUMPDEST POP POP POP POP PUSH1 0x40 MLOAD RETURNDATASIZE PUSH1 0x1F NOT PUSH1 0x1F DUP3 ADD AND DUP3 ADD DUP1 PUSH1 0x40 MSTORE POP DUP2 ADD SWAP1 PUSH3 0x330 SWAP2 SWAP1 PUSH3 0xE55 JUMP JUMPDEST SWAP5 SWAP13 SWAP4 SWAP12 POP SWAP2 SWAP10 POP SWAP8 POP SWAP6 POP SWAP1 SWAP4 POP SWAP2 POP POP JUMP JUMPDEST PUSH1 0x0 SLOAD PUSH1 0x1 PUSH1 0x1 PUSH1 0xA0 SHL SUB AND CALLER EQ PUSH3 0x38C JUMPI PUSH1 0x40 MLOAD PUSH3 0x461BCD PUSH1 0xE5 SHL DUP2 MSTORE PUSH1 0x20 PUSH1 0x4 DUP3 ADD MSTORE PUSH1 0x9 PUSH1 0x24 DUP3 ADD MSTORE PUSH9 0x2737BA1037BBB732B9 PUSH1 0xB9 SHL PUSH1 0x44 DUP3 ADD MSTORE PUSH1 0x64 ADD PUSH3 0x2C2 JUMP JUMPDEST PUSH1 0x1 PUSH1 0x1 PUSH1 0xA0 SHL SUB DUP2 AND PUSH1 0x0 SWAP1 DUP2 MSTORE PUSH1 0x2 PUSH1 0x20 MSTORE PUSH1 0x40 SWAP1 KECCAK256 SLOAD PUSH1 0xFF AND PUSH3 0x3C7 JUMPI PUSH1 0x40 MLOAD PUSH3 0x461BCD PUSH1 0xE5 SHL DUP2 MSTORE PUSH1 0x4 ADD PUSH3 0x2C2 SWAP1 PUSH3 0xE2E JUMP JUMPDEST DUP1 PUSH1 0x1 PUSH1 0x1 PUSH1 0xA0 SHL SUB AND PUSH4 0xEA8A1AF0 PUSH1 0x40 MLOAD DUP2 PUSH4 0xFFFFFFFF AND PUSH1 0xE0 SHL DUP2 MSTORE PUSH1 0x4 ADD PUSH1 0x0 PUSH1 0x40 MLOAD DUP1 DUP4 SUB DUP2 PUSH1 0x0 DUP8 DUP1 EXTCODESIZE ISZERO DUP1 ISZERO PUSH3 0x403 JUMPI PUSH1 0x0 DUP1 REVERT JUMPDEST POP GAS CALL ISZERO DUP1 ISZERO PUSH3 0x418 JUMPI RETURNDATASIZE PUSH1 0x0 DUP1 RETURNDATACOPY RETURNDATASIZE PUSH1 0x0 REVERT JUMPDEST POP POP POP POP DUP1 PUSH1 0x1 PUSH1 0x1 PUSH1 0xA0 SHL SUB AND PUSH32 0xE444B77086C06AB88DC5C3D90E42C61106F1DDE499D608D012B7E8A6A2B9B49D DUP3 PUSH1 0x1 PUSH1 0x1 PUSH1 0xA0 SHL SUB AND PUSH4 0x200D2ED2 PUSH1 0x40 MLOAD DUP2 PUSH4 0xFFFFFFFF AND PUSH1 0xE0 SHL DUP2 MSTORE PUSH1 0x4 ADD PUSH1 0x20 PUSH1 0x40 MLOAD DUP1 DUP4 SUB DUP2 DUP7 GAS STATICCALL ISZERO DUP1 ISZERO PUSH3 0x486 JUMPI RETURNDATASIZE PUSH1 0x0 DUP1 RETURNDATACOPY RETURNDATASIZE PUSH1 0x0 REVERT JUMPDEST POP POP POP POP PUSH1 0x40 MLOAD RETURNDATASIZE PUSH1 0x1F NOT PUSH1 0x1F DUP3 ADD AND DUP3 ADD DUP1 PUSH1 0x40 MSTORE POP DUP2 ADD SWAP1 PUSH3 0x4AC SWAP2 SWAP1 PUSH3 0xEC5 JUMP JUMPDEST PUSH1 0x3 DUP2 GT ISZERO PUSH3 0x4C0 JUMPI PUSH3 0x4C0 PUSH3 0xEE8 JUMP JUMPDEST PUSH1 0x40 MLOAD PUSH1 0xFF SWAP1 SWAP2 AND DUP2 MSTORE PUSH1 0x20 ADD PUSH1 0x40 MLOAD DUP1 SWAP2 SUB SWAP1 LOG2 POP JUMP JUMPDEST PUSH1 0x1 SLOAD PUSH1 0x60 SWAP1 PUSH1 0x0 DUP1 JUMPDEST DUP3 DUP2 LT ISZERO PUSH3 0x5B7 JUMPI PUSH1 0x0 PUSH1 0x1 DUP3 DUP2 SLOAD DUP2 LT PUSH3 0x503 JUMPI PUSH3 0x503 PUSH3 0xEFE JUMP JUMPDEST PUSH1 0x0 SWAP2 DUP3 MSTORE PUSH1 0x20 SWAP2 DUP3 SWAP1 KECCAK256 ADD SLOAD PUSH1 0x40 DUP1 MLOAD PUSH4 0x10069769 PUSH1 0xE1 SHL DUP2 MSTORE SWAP1 MLOAD PUSH1 0x1 PUSH1 0x1 PUSH1 0xA0 SHL SUB SWAP1 SWAP3 AND SWAP3 PUSH4 0x200D2ED2 SWAP3 PUSH1 0x4 DUP1 DUP5 ADD SWAP4 DUP3 SWAP1 SUB ADD DUP2 DUP7 GAS STATICCALL ISZERO DUP1 ISZERO PUSH3 0x552 JUMPI RETURNDATASIZE PUSH1 0x0 DUP1 RETURNDATACOPY RETURNDATASIZE PUSH1 0x0 REVERT JUMPDEST POP POP POP POP PUSH1 0x40 MLOAD RETURNDATASIZE PUSH1 0x1F NOT PUSH1 0x1F DUP3 ADD AND DUP3 ADD DUP1 PUSH1 0x40 MSTORE POP DUP2 ADD SWAP1 PUSH3 0x578 SWAP2 SWAP1 PUSH3 0xEC5 JUMP JUMPDEST PUSH1 0x3 DUP2 GT ISZERO PUSH3 0x58C JUMPI PUSH3 0x58C PUSH3 0xEE8 JUMP JUMPDEST SUB PUSH3 0x5A2 JUMPI DUP2 PUSH3 0x59E DUP2 PUSH3 0xF2A JUMP JUMPDEST SWAP3 POP POP JUMPDEST DUP1 PUSH3 0x5AE DUP2 PUSH3 0xF2A JUMP JUMPDEST SWAP2 POP POP PUSH3 0x4E2 JUMP JUMPDEST POP PUSH1 0x0 DUP2 PUSH8 0xFFFFFFFFFFFFFFFF DUP2 GT ISZERO PUSH3 0x5D6 JUMPI PUSH3 0x5D6 PUSH3 0xF46 JUMP JUMPDEST PUSH1 0x40 MLOAD SWAP1 DUP1 DUP3 MSTORE DUP1 PUSH1 0x20 MUL PUSH1 0x20 ADD DUP3 ADD PUSH1 0x40 MSTORE DUP1 ISZERO PUSH3 0x600 JUMPI DUP2 PUSH1 0x20 ADD PUSH1 0x20 DUP3 MUL DUP1 CALLDATASIZE DUP4 CALLDATACOPY ADD SWAP1 POP JUMPDEST POP SWAP1 POP PUSH1 0x0 DUP1 JUMPDEST DUP5 DUP2 LT ISZERO PUSH3 0x73D JUMPI PUSH1 0x0 PUSH1 0x1 DUP3 DUP2 SLOAD DUP2 LT PUSH3 0x628 JUMPI PUSH3 0x628 PUSH3 0xEFE JUMP JUMPDEST PUSH1 0x0 SWAP2 DUP3 MSTORE PUSH1 0x20 SWAP2 DUP3 SWAP1 KECCAK256 ADD SLOAD PUSH1 0x40 DUP1 MLOAD PUSH4 0x10069769 PUSH1 0xE1 SHL DUP2 MSTORE SWAP1 MLOAD PUSH1 0x1 PUSH1 0x1 PUSH1 0xA0 SHL SUB SWAP1 SWAP3 AND SWAP3 PUSH4 0x200D2ED2 SWAP3 PUSH1 0x4 DUP1 DUP5 ADD SWAP4 DUP3 SWAP1 SUB ADD DUP2 DUP7 GAS STATICCALL ISZERO DUP1 ISZERO PUSH3 0x677 JUMPI RETURNDATASIZE PUSH1 0x0 DUP1 RETURNDATACOPY RETURNDATASIZE PUSH1 0x0 REVERT JUMPDEST POP POP POP POP PUSH1 0x40 MLOAD RETURNDATASIZE PUSH1 0x1F NOT PUSH1 0x1F DUP3 ADD AND DUP3 ADD DUP1 PUSH1 0x40 MSTORE POP DUP2 ADD SWAP1 PUSH3 0x69D SWAP2 SWAP1 PUSH3 0xEC5 JUMP JUMPDEST PUSH1 0x3 DUP2 GT ISZERO PUSH3 0x6B1 JUMPI PUSH3 0x6B1 PUSH3 0xEE8 JUMP JUMPDEST SUB PUSH3 0x728 JUMPI PUSH1 0x1 DUP2 DUP2 SLOAD DUP2 LT PUSH3 0x6CD JUMPI PUSH3 0x6CD PUSH3 0xEFE JUMP JUMPDEST SWAP1 PUSH1 0x0 MSTORE PUSH1 0x20 PUSH1 0x0 KECCAK256 ADD PUSH1 0x0 SWAP1 SLOAD SWAP1 PUSH2 0x100 EXP SWAP1 DIV PUSH1 0x1 PUSH1 0x1 PUSH1 0xA0 SHL SUB AND DUP4 DUP4 DUP2 MLOAD DUP2 LT PUSH3 0x700 JUMPI PUSH3 0x700 PUSH3 0xEFE JUMP JUMPDEST PUSH1 0x1 PUSH1 0x1 PUSH1 0xA0 SHL SUB SWAP1 SWAP3 AND PUSH1 0x20 SWAP3 DUP4 MUL SWAP2 SWAP1 SWAP2 ADD SWAP1 SWAP2 ADD MSTORE DUP2 PUSH3 0x724 DUP2 PUSH3 0xF2A JUMP JUMPDEST SWAP3 POP POP JUMPDEST DUP1 PUSH3 0x734 DUP2 PUSH3 0xF2A JUMP JUMPDEST SWAP2 POP POP PUSH3 0x607 JUMP JUMPDEST POP SWAP1 SWAP5 SWAP4 POP POP POP POP JUMP JUMPDEST PUSH1 0x0 SLOAD PUSH1 0x1 PUSH1 0x1 PUSH1 0xA0 SHL SUB AND CALLER EQ PUSH3 0x78F JUMPI PUSH1 0x40 MLOAD PUSH3 0x461BCD PUSH1 0xE5 SHL DUP2 MSTORE PUSH1 0x20 PUSH1 0x4 DUP3 ADD MSTORE PUSH1 0x9 PUSH1 0x24 DUP3 ADD MSTORE PUSH9 0x2737BA1037BBB732B9 PUSH1 0xB9 SHL PUSH1 0x44 DUP3 ADD MSTORE PUSH1 0x64 ADD PUSH3 0x2C2 JUMP JUMPDEST PUSH1 0x1 PUSH1 0x1 PUSH1 0xA0 SHL SUB DUP6 AND PUSH1 0x0 SWAP1 DUP2 MSTORE PUSH1 0x2 PUSH1 0x20 MSTORE PUSH1 0x40 SWAP1 KECCAK256 SLOAD PUSH1 0xFF AND PUSH3 0x7CA JUMPI PUSH1 0x40 MLOAD PUSH3 0x461BCD PUSH1 0xE5 SHL DUP2 MSTORE PUSH1 0x4 ADD PUSH3 0x2C2 SWAP1 PUSH3 0xE2E JUMP JUMPDEST PUSH1 0x40 MLOAD PUSH4 0x4B556CF9 PUSH1 0xE0 SHL DUP2 MSTORE PUSH1 0x1 PUSH1 0x1 PUSH1 0xA0 SHL SUB DUP7 AND SWAP1 PUSH4 0x4B556CF9 SWAP1 PUSH3 0x7FE SWAP1 DUP8 SWAP1 DUP8 SWAP1 DUP8 SWAP1 DUP8 SWAP1 PUSH1 0x4 ADD PUSH3 0xF5C JUMP JUMPDEST PUSH1 0x0 PUSH1 0x40 MLOAD DUP1 DUP4 SUB DUP2 PUSH1 0x0 DUP8 DUP1 EXTCODESIZE ISZERO DUP1 ISZERO PUSH3 0x819 JUMPI PUSH1 0x0 DUP1 REVERT JUMPDEST POP GAS CALL ISZERO DUP1 ISZERO PUSH3 0x82E JUMPI RETURNDATASIZE PUSH1 0x0 DUP1 RETURNDATACOPY RETURNDATASIZE PUSH1 0x0 REVERT JUMPDEST POP POP POP POP DUP5 PUSH1 0x1 PUSH1 0x1 PUSH1 0xA0 SHL SUB AND PUSH32 0xE444B77086C06AB88DC5C3D90E42C61106F1DDE499D608D012B7E8A6A2B9B49D DUP7 PUSH1 0x1 PUSH1 0x1 PUSH1 0xA0 SHL SUB AND PUSH4 0x200D2ED2 PUSH1 0x40 MLOAD DUP2 PUSH4 0xFFFFFFFF AND PUSH1 0xE0 SHL DUP2 MSTORE PUSH1 0x4 ADD PUSH1 0x20 PUSH1 0x40 MLOAD DUP1 DUP4 SUB DUP2 DUP7 GAS STATICCALL ISZERO DUP1 ISZERO PUSH3 0x89C JUMPI RETURNDATASIZE PUSH1 0x0 DUP1 RETURNDATACOPY RETURNDATASIZE PUSH1 0x0 REVERT JUMPDEST POP POP POP POP PUSH1 0x40 MLOAD RETURNDATASIZE PUSH1 0x1F NOT PUSH1 0x1F DUP3 ADD AND DUP3 ADD DUP1 PUSH1 0x40 MSTORE POP DUP2 ADD SWAP1 PUSH3 0x8C2 SWAP2 SWAP1 PUSH3 0xEC5 JUMP JUMPDEST PUSH1 0x3 DUP2 GT ISZERO PUSH3 0x8D6 JUMPI PUSH3 0x8D6 PUSH3 0xEE8 JUMP JUMPDEST PUSH1 0x40 MLOAD PUSH1 0xFF SWAP1 SWAP2 AND DUP2 MSTORE PUSH1 0x20 ADD PUSH1 0x40 MLOAD DUP1 SWAP2 SUB SWAP1 LOG2 POP POP POP POP POP JUMP JUMPDEST PUSH1 0x0 DUP2 CALLVALUE EQ PUSH3 0x945 JUMPI PUSH1 0x40 MLOAD PUSH3 0x461BCD PUSH1 0xE5 SHL DUP2 MSTORE PUSH1 0x20 PUSH1 0x4 DUP3 ADD MSTORE PUSH1 0x1D PUSH1 0x24 DUP3 ADD MSTORE PUSH32 0x6D73672E76616C7565206D75737420657175616C20656E747279466565000000 PUSH1 0x44 DUP3 ADD MSTORE PUSH1 0x64 ADD PUSH3 0x2C2 JUMP JUMPDEST PUSH1 0x0 DUP3 GT PUSH3 0x98F JUMPI PUSH1 0x40 MLOAD PUSH3 0x461BCD PUSH1 0xE5 SHL DUP2 MSTORE PUSH1 0x20 PUSH1 0x4 DUP3 ADD MSTORE PUSH1 0x15 PUSH1 0x24 DUP3 ADD MSTORE PUSH21 0x456E74727920666565206D757374206265203E203 PUSH1 0x5C SHL PUSH1 0x44 DUP3 ADD MSTORE PUSH1 0x64 ADD PUSH3 0x2C2 JUMP JUMPDEST PUSH1 0x0 CALLER DUP5 DUP5 PUSH1 0x40 MLOAD PUSH3 0x9A2 SWAP1 PUSH3 0xC3A JUMP JUMPDEST PUSH1 0x1 PUSH1 0x1 PUSH1 0xA0 SHL SUB SWAP1 SWAP4 AND DUP4 MSTORE PUSH1 0xFF SWAP1 SWAP2 AND PUSH1 0x20 DUP4 ADD MSTORE PUSH1 0x40 DUP3 ADD MSTORE PUSH1 0x60 ADD PUSH1 0x40 MLOAD DUP1 SWAP2 SUB SWAP1 PUSH1 0x0 CREATE DUP1 ISZERO DUP1 ISZERO PUSH3 0x9DE JUMPI RETURNDATASIZE PUSH1 0x0 DUP1 RETURNDATACOPY RETURNDATASIZE PUSH1 0x0 REVERT JUMPDEST POP PUSH1 0x1 DUP1 SLOAD DUP1 DUP3 ADD DUP3 SSTORE PUSH32 0xB10E2D527612073B26EECDFD717E6A320CF44B4AFAC2B0732D9FCBE2B7FA0CF6 ADD DUP1 SLOAD PUSH1 0x1 PUSH1 0x1 PUSH1 0xA0 SHL SUB NOT AND PUSH1 0x1 PUSH1 0x1 PUSH1 0xA0 SHL SUB DUP5 AND SWAP1 DUP2 OR SWAP1 SWAP2 SSTORE PUSH1 0x0 DUP2 DUP2 MSTORE PUSH1 0x2 PUSH1 0x20 MSTORE PUSH1 0x40 SWAP1 DUP2 SWAP1 KECCAK256 DUP1 SLOAD PUSH1 0xFF NOT AND SWAP1 SWAP4 OR SWAP1 SWAP3 SSTORE SWAP1 MLOAD PUSH4 0x6B7C1C3B PUSH1 0xE1 SHL DUP2 MSTORE CALLER PUSH1 0x4 DUP3 ADD MSTORE SWAP2 SWAP4 POP DUP4 SWAP3 POP SWAP1 PUSH4 0xD6F83876 SWAP1 CALLVALUE SWAP1 PUSH1 0x24 ADD PUSH1 0x0 PUSH1 0x40 MLOAD DUP1 DUP4 SUB DUP2 DUP6 DUP9 DUP1 EXTCODESIZE ISZERO DUP1 ISZERO PUSH3 0xA80 JUMPI PUSH1 0x0 DUP1 REVERT JUMPDEST POP GAS CALL ISZERO DUP1 ISZERO PUSH3 0xA95 JUMPI RETURNDATASIZE PUSH1 0x0 DUP1 RETURNDATACOPY RETURNDATASIZE PUSH1 0x0 REVERT JUMPDEST POP POP PUSH1 0x40 DUP1 MLOAD PUSH1 0xFF DUP10 AND DUP2 MSTORE PUSH1 0x20 DUP2 ADD DUP9 SWAP1 MSTORE CALLER SWAP5 POP PUSH1 0x1 PUSH1 0x1 PUSH1 0xA0 SHL SUB DUP8 AND SWAP4 POP PUSH32 0xB92163811F4BC5E47ECAAE65418FA7C7E8906209B9B4D2E0042FA00DCC5198D7 SWAP3 POP ADD PUSH1 0x40 MLOAD DUP1 SWAP2 SUB SWAP1 LOG3 POP JUMPDEST SWAP3 SWAP2 POP POP JUMP JUMPDEST PUSH1 0x1 DUP2 DUP2 SLOAD DUP2 LT PUSH3 0xAFC JUMPI PUSH1 0x0 DUP1 REVERT JUMPDEST PUSH1 0x0 SWAP2 DUP3 MSTORE PUSH1 0x20 SWAP1 SWAP2 KECCAK256 ADD SLOAD PUSH1 0x1 PUSH1 0x1 PUSH1 0xA0 SHL SUB AND SWAP1 POP DUP2 JUMP JUMPDEST PUSH1 0x1 SLOAD PUSH1 0x60 SWAP1 DUP1 DUP5 LT PUSH3 0xB3B JUMPI POP POP PUSH1 0x40 DUP1 MLOAD PUSH1 0x0 DUP2 MSTORE PUSH1 0x20 DUP2 ADD SWAP1 SWAP2 MSTORE PUSH3 0xAE5 JUMP JUMPDEST PUSH1 0x0 PUSH3 0xB49 DUP5 DUP7 PUSH3 0xFDF JUMP JUMPDEST SWAP1 POP DUP2 DUP2 GT ISZERO PUSH3 0xB57 JUMPI POP DUP1 JUMPDEST PUSH1 0x0 PUSH3 0xB65 DUP7 DUP4 PUSH3 0xFF5 JUMP JUMPDEST PUSH8 0xFFFFFFFFFFFFFFFF DUP2 GT ISZERO PUSH3 0xB80 JUMPI PUSH3 0xB80 PUSH3 0xF46 JUMP JUMPDEST PUSH1 0x40 MLOAD SWAP1 DUP1 DUP3 MSTORE DUP1 PUSH1 0x20 MUL PUSH1 0x20 ADD DUP3 ADD PUSH1 0x40 MSTORE DUP1 ISZERO PUSH3 0xBAA JUMPI DUP2 PUSH1 0x20 ADD PUSH1 0x20 DUP3 MUL DUP1 CALLDATASIZE DUP4 CALLDATACOPY ADD SWAP1 POP JUMPDEST POP SWAP1 POP DUP6 JUMPDEST DUP3 DUP2 LT ISZERO PUSH3 0xC30 JUMPI PUSH1 0x1 DUP2 DUP2 SLOAD DUP2 LT PUSH3 0xBCE JUMPI PUSH3 0xBCE PUSH3 0xEFE JUMP JUMPDEST PUSH1 0x0 SWAP2 DUP3 MSTORE PUSH1 0x20 SWAP1 SWAP2 KECCAK256 ADD SLOAD PUSH1 0x1 PUSH1 0x1 PUSH1 0xA0 SHL SUB AND DUP3 PUSH3 0xBF0 DUP10 DUP5 PUSH3 0xFF5 JUMP JUMPDEST DUP2 MLOAD DUP2 LT PUSH3 0xC03 JUMPI PUSH3 0xC03 PUSH3 0xEFE JUMP JUMPDEST PUSH1 0x1 PUSH1 0x1 PUSH1 0xA0 SHL SUB SWAP1 SWAP3 AND PUSH1 0x20 SWAP3 DUP4 MUL SWAP2 SWAP1 SWAP2 ADD SWAP1 SWAP2 ADD MSTORE DUP1 PUSH3 0xC27 DUP2 PUSH3 0xF2A JUMP JUMPDEST SWAP2 POP POP PUSH3 0xBAF JUMP JUMPDEST POP SWAP6 SWAP5 POP POP POP POP POP JUMP JUMPDEST PUSH2 0x1B9C DUP1 PUSH3 0x100C DUP4 CODECOPY ADD SWAP1 JUMP JUMPDEST PUSH1 0x1 PUSH1 0x1 PUSH1 0xA0 SHL SUB DUP2 AND DUP2 EQ PUSH3 0xC5E JUMPI PUSH1 0x0 DUP1 REVERT JUMPDEST POP JUMP JUMPDEST PUSH1 0x0 PUSH1 0x20 DUP3 DUP5 SUB SLT ISZERO PUSH3 0xC74 JUMPI PUSH1 0x0 DUP1 REVERT JUMPDEST DUP2 CALLDATALOAD PUSH3 0xC81 DUP2 PUSH3 0xC48 JUMP JUMPDEST SWAP4 SWAP3 POP POP POP JUMP JUMPDEST PUSH1 0x20 DUP1 DUP3 MSTORE DUP3 MLOAD DUP3 DUP3 ADD DUP2 SWAP1 MSTORE PUSH1 0x0 SWAP2 SWAP1 DUP5 DUP3 ADD SWAP1 PUSH1 0x40 DUP6 ADD SWAP1 DUP5 JUMPDEST DUP2 DUP2 LT ISZERO PUSH3 0xCCB JUMPI DUP4 MLOAD PUSH1 0x1 PUSH1 0x1 PUSH1 0xA0 SHL SUB AND DUP4 MSTORE SWAP3 DUP5 ADD SWAP3 SWAP2 DUP5 ADD SWAP2 PUSH1 0x1 ADD PUSH3 0xCA4 JUMP JUMPDEST POP SWAP1 SWAP7 SWAP6 POP POP POP POP POP POP JUMP JUMPDEST PUSH1 0x0 DUP1 DUP4 PUSH1 0x1F DUP5 ADD SLT PUSH3 0xCEA JUMPI PUSH1 0x0 DUP1 REVERT JUMPDEST POP DUP2 CALLDATALOAD PUSH8 0xFFFFFFFFFFFFFFFF DUP2 GT ISZERO PUSH3 0xD03 JUMPI PUSH1 0x0 DUP1 REVERT JUMPDEST PUSH1 0x20 DUP4 ADD SWAP2 POP DUP4 PUSH1 0x20 DUP3 PUSH1 0x5 SHL DUP6 ADD ADD GT ISZERO PUSH3 0xD1F JUMPI PUSH1 0x0 DUP1 REVERT JUMPDEST SWAP3 POP SWAP3 SWAP1 POP JUMP JUMPDEST PUSH1 0x0 DUP1 PUSH1 0x0 DUP1 PUSH1 0x0 PUSH1 0x60 DUP7 DUP9 SUB SLT ISZERO PUSH3 0xD3F JUMPI PUSH1 0x0 DUP1 REVERT JUMPDEST DUP6 CALLDATALOAD PUSH3 0xD4C DUP2 PUSH3 0xC48 JUMP JUMPDEST SWAP5 POP PUSH1 0x20 DUP7 ADD CALLDATALOAD PUSH8 0xFFFFFFFFFFFFFFFF DUP1 DUP3 GT ISZERO PUSH3 0xD6A JUMPI PUSH1 0x0 DUP1 REVERT JUMPDEST PUSH3 0xD78 DUP10 DUP4 DUP11 ADD PUSH3 0xCD7 JUMP JUMPDEST SWAP1 SWAP7 POP SWAP5 POP PUSH1 0x40 DUP9 ADD CALLDATALOAD SWAP2 POP DUP1 DUP3 GT ISZERO PUSH3 0xD92 JUMPI PUSH1 0x0 DUP1 REVERT JUMPDEST POP PUSH3 0xDA1 DUP9 DUP3 DUP10 ADD PUSH3 0xCD7 JUMP JUMPDEST SWAP7 SWAP10 SWAP6 SWAP9 POP SWAP4 SWAP7 POP SWAP3 SWAP5 SWAP4 SWAP3 POP POP POP JUMP JUMPDEST PUSH1 0xFF DUP2 AND DUP2 EQ PUSH3 0xC5E JUMPI PUSH1 0x0 DUP1 REVERT JUMPDEST PUSH1 0x0 DUP1 PUSH1 0x40 DUP4 DUP6 SUB SLT ISZERO PUSH3 0xDD6 JUMPI PUSH1 0x0 DUP1 REVERT JUMPDEST DUP3 CALLDATALOAD PUSH3 0xDE3 DUP2 PUSH3 0xDB2 JUMP JUMPDEST SWAP5 PUSH1 0x20 SWAP4 SWAP1 SWAP4 ADD CALLDATALOAD SWAP4 POP POP POP JUMP JUMPDEST PUSH1 0x0 PUSH1 0x20 DUP3 DUP5 SUB SLT ISZERO PUSH3 0xE04 JUMPI PUSH1 0x0 DUP1 REVERT JUMPDEST POP CALLDATALOAD SWAP2 SWAP1 POP JUMP JUMPDEST PUSH1 0x0 DUP1 PUSH1 0x40 DUP4 DUP6 SUB SLT ISZERO PUSH3 0xE1F JUMPI PUSH1 0x0 DUP1 REVERT JUMPDEST POP POP DUP1 CALLDATALOAD SWAP3 PUSH1 0x20 SWAP1 SWAP2 ADD CALLDATALOAD SWAP2 POP JUMP JUMPDEST PUSH1 0x20 DUP1 DUP3 MSTORE PUSH1 0xD SWAP1 DUP3 ADD MSTORE PUSH13 0xAADCD6DCDEEEDC40DAC2E8C6D PUSH1 0x9B SHL PUSH1 0x40 DUP3 ADD MSTORE PUSH1 0x60 ADD SWAP1 JUMP JUMPDEST PUSH1 0x0 DUP1 PUSH1 0x0 DUP1 PUSH1 0x0 DUP1 PUSH1 0xC0 DUP8 DUP10 SUB SLT ISZERO PUSH3 0xE6F JUMPI PUSH1 0x0 DUP1 REVERT JUMPDEST DUP7 MLOAD PUSH3 0xE7C DUP2 PUSH3 0xC48 JUMP JUMPDEST PUSH1 0x20 DUP9 ADD MLOAD SWAP1 SWAP7 POP PUSH3 0xE8F DUP2 PUSH3 0xDB2 JUMP JUMPDEST PUSH1 0x40 DUP9 ADD MLOAD PUSH1 0x60 DUP10 ADD MLOAD SWAP2 SWAP7 POP SWAP5 POP PUSH3 0xEA9 DUP2 PUSH3 0xDB2 JUMP JUMPDEST DUP1 SWAP4 POP POP PUSH1 0x80 DUP8 ADD MLOAD SWAP2 POP PUSH1 0xA0 DUP8 ADD MLOAD SWAP1 POP SWAP3 SWAP6 POP SWAP3 SWAP6 POP SWAP3 SWAP6 JUMP JUMPDEST PUSH1 0x0 PUSH1 0x20 DUP3 DUP5 SUB SLT ISZERO PUSH3 0xED8 JUMPI PUSH1 0x0 DUP1 REVERT JUMPDEST DUP2 MLOAD PUSH1 0x4 DUP2 LT PUSH3 0xC81 JUMPI PUSH1 0x0 DUP1 REVERT JUMPDEST PUSH4 0x4E487B71 PUSH1 0xE0 SHL PUSH1 0x0 MSTORE PUSH1 0x21 PUSH1 0x4 MSTORE PUSH1 0x24 PUSH1 0x0 REVERT JUMPDEST PUSH4 0x4E487B71 PUSH1 0xE0 SHL PUSH1 0x0 MSTORE PUSH1 0x32 PUSH1 0x4 MSTORE PUSH1 0x24 PUSH1 0x0 REVERT JUMPDEST PUSH4 0x4E487B71 PUSH1 0xE0 SHL PUSH1 0x0 MSTORE PUSH1 0x11 PUSH1 0x4 MSTORE PUSH1 0x24 PUSH1 0x0 REVERT JUMPDEST PUSH1 0x0 PUSH1 0x1 DUP3 ADD PUSH3 0xF3F JUMPI PUSH3 0xF3F PUSH3 0xF14 JUMP JUMPDEST POP PUSH1 0x1 ADD SWAP1 JUMP JUMPDEST PUSH4 0x4E487B71 PUSH1 0xE0 SHL PUSH1 0x0 MSTORE PUSH1 0x41 PUSH1 0x4 MSTORE PUSH1 0x24 PUSH1 0x0 REVERT JUMPDEST PUSH1 0x40 DUP1 DUP3 MSTORE DUP2 ADD DUP5 SWAP1 MSTORE PUSH1 0x0 DUP6 PUSH1 0x60 DUP4 ADD DUP3 JUMPDEST DUP8 DUP2 LT ISZERO PUSH3 0xFA3 JUMPI DUP3 CALLDATALOAD PUSH3 0xF85 DUP2 PUSH3 0xC48 JUMP JUMPDEST PUSH1 0x1 PUSH1 0x1 PUSH1 0xA0 SHL SUB AND DUP3 MSTORE PUSH1 0x20 SWAP3 DUP4 ADD SWAP3 SWAP1 SWAP2 ADD SWAP1 PUSH1 0x1 ADD PUSH3 0xF6F JUMP JUMPDEST POP DUP4 DUP2 SUB PUSH1 0x20 DUP6 ADD MSTORE DUP5 DUP2 MSTORE PUSH1 0x1 PUSH1 0x1 PUSH1 0xFB SHL SUB DUP6 GT ISZERO PUSH3 0xFC4 JUMPI PUSH1 0x0 DUP1 REVERT JUMPDEST DUP5 PUSH1 0x5 SHL SWAP2 POP DUP2 DUP7 PUSH1 0x20 DUP4 ADD CALLDATACOPY ADD PUSH1 0x20 ADD SWAP7 SWAP6 POP POP POP POP POP POP JUMP JUMPDEST DUP1 DUP3 ADD DUP1 DUP3 GT ISZERO PUSH3 0xAE5 JUMPI PUSH3 0xAE5 PUSH3 0xF14 JUMP JUMPDEST DUP2 DUP2 SUB DUP2 DUP2 GT ISZERO PUSH3 0xAE5 JUMPI PUSH3 0xAE5 PUSH3 0xF14 JUMP INVALID PUSH2 0x100 PUSH1 0x40 MSTORE CALLVALUE DUP1 ISZERO PUSH3 0x12 JUMPI PUSH1 0x0 DUP1 REVERT JUMPDEST POP PUSH1 0x40 MLOAD PUSH3 0x1B9C CODESIZE SUB DUP1 PUSH3 0x1B9C DUP4 CODECOPY DUP2 ADD PUSH1 0x40 DUP2 SWAP1 MSTORE PUSH3 0x35 SWAP2 PUSH3 0x175 JUMP JUMPDEST PUSH1 0x1 PUSH1 0x1 PUSH1 0xA0 SHL SUB DUP4 AND PUSH3 0x80 JUMPI PUSH1 0x40 MLOAD PUSH3 0x461BCD PUSH1 0xE5 SHL DUP2 MSTORE PUSH1 0x20 PUSH1 0x4 DUP3 ADD MSTORE PUSH1 0xC PUSH1 0x24 DUP3 ADD MSTORE PUSH12 0x2D32B9379031B932B0BA37B9 PUSH1 0xA1 SHL PUSH1 0x44 DUP3 ADD MSTORE PUSH1 0x64 ADD JUMPDEST PUSH1 0x40 MLOAD DUP1 SWAP2 SUB SWAP1 REVERT JUMPDEST DUP2 PUSH1 0xFF AND PUSH1 0x2 EQ DUP1 PUSH3 0x96 JUMPI POP DUP2 PUSH1 0xFF AND PUSH1 0x4 EQ JUMPDEST DUP1 PUSH3 0xA5 JUMPI POP DUP2 PUSH1 0xFF AND PUSH1 0x8 EQ JUMPDEST DUP1 PUSH3 0xB4 JUMPI POP DUP2 PUSH1 0xFF AND PUSH1 0x10 EQ JUMPDEST PUSH3 0xF7 JUMPI PUSH1 0x40 MLOAD PUSH3 0x461BCD PUSH1 0xE5 SHL DUP2 MSTORE PUSH1 0x20 PUSH1 0x4 DUP3 ADD MSTORE PUSH1 0x12 PUSH1 0x24 DUP3 ADD MSTORE PUSH18 0x496E76616C6964206D6178506C6179657273 PUSH1 0x70 SHL PUSH1 0x44 DUP3 ADD MSTORE PUSH1 0x64 ADD PUSH3 0x77 JUMP JUMPDEST PUSH1 0x0 DUP2 GT PUSH3 0x149 JUMPI PUSH1 0x40 MLOAD PUSH3 0x461BCD PUSH1 0xE5 SHL DUP2 MSTORE PUSH1 0x20 PUSH1 0x4 DUP3 ADD MSTORE PUSH1 0x15 PUSH1 0x24 DUP3 ADD MSTORE PUSH32 0x456E74727920666565206D757374206265203E20300000000000000000000000 PUSH1 0x44 DUP3 ADD MSTORE PUSH1 0x64 ADD PUSH3 0x77 JUMP JUMPDEST CALLER PUSH1 0x80 MSTORE PUSH1 0x1 PUSH1 0x1 PUSH1 0xA0 SHL SUB SWAP3 SWAP1 SWAP3 AND PUSH1 0xA0 MSTORE PUSH1 0xFF AND PUSH1 0xC0 MSTORE PUSH1 0xE0 MSTORE PUSH1 0x0 DUP1 SLOAD PUSH1 0xFF NOT AND SWAP1 SSTORE PUSH3 0x1CD JUMP JUMPDEST PUSH1 0x0 DUP1 PUSH1 0x0 PUSH1 0x60 DUP5 DUP7 SUB SLT ISZERO PUSH3 0x18B JUMPI PUSH1 0x0 DUP1 REVERT JUMPDEST DUP4 MLOAD PUSH1 0x1 PUSH1 0x1 PUSH1 0xA0 SHL SUB DUP2 AND DUP2 EQ PUSH3 0x1A3 JUMPI PUSH1 0x0 DUP1 REVERT JUMPDEST PUSH1 0x20 DUP6 ADD MLOAD SWAP1 SWAP4 POP PUSH1 0xFF DUP2 AND DUP2 EQ PUSH3 0x1BB JUMPI PUSH1 0x0 DUP1 REVERT JUMPDEST DUP1 SWAP3 POP POP PUSH1 0x40 DUP5 ADD MLOAD SWAP1 POP SWAP3 POP SWAP3 POP SWAP3 JUMP JUMPDEST PUSH1 0x80 MLOAD PUSH1 0xA0 MLOAD PUSH1 0xC0 MLOAD PUSH1 0xE0 MLOAD PUSH2 0x193A PUSH3 0x262 PUSH1 0x0 CODECOPY PUSH1 0x0 DUP2 DUP2 PUSH2 0x171 ADD MSTORE DUP2 DUP2 PUSH2 0xB74 ADD MSTORE DUP2 DUP2 PUSH2 0xE69 ADD MSTORE DUP2 DUP2 PUSH2 0xF34 ADD MSTORE PUSH2 0x1511 ADD MSTORE PUSH1 0x0 DUP2 DUP2 PUSH2 0x27E ADD MSTORE DUP2 DUP2 PUSH2 0x849 ADD MSTORE DUP2 DUP2 PUSH2 0xB53 ADD MSTORE DUP2 DUP2 PUSH2 0x14B5 ADD MSTORE PUSH2 0x15FF ADD MSTORE PUSH1 0x0 DUP2 DUP2 PUSH2 0x120 ADD MSTORE DUP2 DUP2 PUSH2 0xB32 ADD MSTORE PUSH2 0xCB5 ADD MSTORE PUSH1 0x0 DUP2 DUP2 PUSH2 0x380 ADD MSTORE DUP2 DUP2 PUSH2 0x3F5 ADD MSTORE DUP2 DUP2 PUSH2 0xC42 ADD MSTORE PUSH2 0xCE7 ADD MSTORE PUSH2 0x193A PUSH1 0x0 RETURN INVALID PUSH1 0x80 PUSH1 0x40 MSTORE PUSH1 0x4 CALLDATASIZE LT PUSH2 0x102 JUMPI PUSH1 0x0 CALLDATALOAD PUSH1 0xE0 SHR DUP1 PUSH4 0x5A9B0B89 GT PUSH2 0x95 JUMPI DUP1 PUSH4 0xB688A363 GT PUSH2 0x64 JUMPI DUP1 PUSH4 0xB688A363 EQ PUSH2 0x366 JUMPI DUP1 PUSH4 0xC45A0155 EQ PUSH2 0x36E JUMPI DUP1 PUSH4 0xD6F83876 EQ PUSH2 0x3A2 JUMPI DUP1 PUSH4 0xEA8A1AF0 EQ PUSH2 0x3B5 JUMPI DUP1 PUSH4 0xF71D96CB EQ PUSH2 0x3CA JUMPI PUSH1 0x0 DUP1 REVERT JUMPDEST DUP1 PUSH4 0x5A9B0B89 EQ PUSH2 0x2B2 JUMPI DUP1 PUSH4 0x719CE73E EQ PUSH2 0x304 JUMPI DUP1 PUSH4 0x76DD110F EQ PUSH2 0x317 JUMPI DUP1 PUSH4 0x8B5B9CCC EQ PUSH2 0x344 JUMPI PUSH1 0x0 DUP1 REVERT JUMPDEST DUP1 PUSH4 0x200D2ED2 GT PUSH2 0xD1 JUMPI DUP1 PUSH4 0x200D2ED2 EQ PUSH2 0x20E JUMPI DUP1 PUSH4 0x302BCC57 EQ PUSH2 0x235 JUMPI DUP1 PUSH4 0x4B556CF9 EQ PUSH2 0x24A JUMPI DUP1 PUSH4 0x4C2412A2 EQ PUSH2 0x26C JUMPI PUSH1 0x0 DUP1 REVERT JUMPDEST DUP1 PUSH4 0x2D05D3F EQ PUSH2 0x10E JUMPI DUP1 PUSH4 0x72EA61C EQ PUSH2 0x15F JUMPI DUP1 PUSH4 0xB7E9C44 EQ PUSH2 0x1A1 JUMPI DUP1 PUSH4 0x10EB0E0E EQ PUSH2 0x1CE JUMPI PUSH1 0x0 DUP1 REVERT JUMPDEST CALLDATASIZE PUSH2 0x109 JUMPI STOP JUMPDEST PUSH1 0x0 DUP1 REVERT JUMPDEST CALLVALUE DUP1 ISZERO PUSH2 0x11A JUMPI PUSH1 0x0 DUP1 REVERT JUMPDEST POP PUSH2 0x142 PUSH32 0x0 DUP2 JUMP JUMPDEST PUSH1 0x40 MLOAD PUSH1 0x1 PUSH1 0x1 PUSH1 0xA0 SHL SUB SWAP1 SWAP2 AND DUP2 MSTORE PUSH1 0x20 ADD JUMPDEST PUSH1 0x40 MLOAD DUP1 SWAP2 SUB SWAP1 RETURN JUMPDEST CALLVALUE DUP1 ISZERO PUSH2 0x16B JUMPI PUSH1 0x0 DUP1 REVERT JUMPDEST POP PUSH2 0x193 PUSH32 0x0 DUP2 JUMP JUMPDEST PUSH1 0x40 MLOAD SWAP1 DUP2 MSTORE PUSH1 0x20 ADD PUSH2 0x156 JUMP JUMPDEST CALLVALUE DUP1 ISZERO PUSH2 0x1AD JUMPI PUSH1 0x0 DUP1 REVERT JUMPDEST POP PUSH2 0x193 PUSH2 0x1BC CALLDATASIZE PUSH1 0x4 PUSH2 0x165E JUMP JUMPDEST PUSH1 0x4 PUSH1 0x20 MSTORE PUSH1 0x0 SWAP1 DUP2 MSTORE PUSH1 0x40 SWAP1 KECCAK256 SLOAD DUP2 JUMP JUMPDEST CALLVALUE DUP1 ISZERO PUSH2 0x1DA JUMPI PUSH1 0x0 DUP1 REVERT JUMPDEST POP PUSH2 0x1FE PUSH2 0x1E9 CALLDATASIZE PUSH1 0x4 PUSH2 0x165E JUMP JUMPDEST PUSH1 0x2 PUSH1 0x20 MSTORE PUSH1 0x0 SWAP1 DUP2 MSTORE PUSH1 0x40 SWAP1 KECCAK256 SLOAD PUSH1 0xFF AND DUP2 JUMP JUMPDEST PUSH1 0x40 MLOAD SWAP1 ISZERO ISZERO DUP2 MSTORE PUSH1 0x20 ADD PUSH2 0x156 JUMP JUMPDEST CALLVALUE DUP1 ISZERO PUSH2 0x21A JUMPI PUSH1 0x0 DUP1 REVERT JUMPDEST POP PUSH1 0x0 SLOAD PUSH2 0x228 SWAP1 PUSH1 0xFF AND DUP2 JUMP JUMPDEST PUSH1 0x40 MLOAD PUSH2 0x156 SWAP2 SWAP1 PUSH2 0x169D JUMP JUMPDEST CALLVALUE DUP1 ISZERO PUSH2 0x241 JUMPI PUSH1 0x0 DUP1 REVERT JUMPDEST POP PUSH1 0x1 SLOAD PUSH2 0x193 JUMP JUMPDEST CALLVALUE DUP1 ISZERO PUSH2 0x256 JUMPI PUSH1 0x0 DUP1 REVERT JUMPDEST POP PUSH2 0x26A PUSH2 0x265 CALLDATASIZE PUSH1 0x4 PUSH2 0x1711 JUMP JUMPDEST PUSH2 0x3EA JUMP JUMPDEST STOP JUMPDEST CALLVALUE DUP1 ISZERO PUSH2 0x278 JUMPI PUSH1 0x0 DUP1 REVERT JUMPDEST POP PUSH2 0x2A0 PUSH32 0x0 DUP2 JUMP JUMPDEST PUSH1 0x40 MLOAD PUSH1 0xFF SWAP1 SWAP2 AND DUP2 MSTORE PUSH1 0x20 ADD PUSH2 0x156 JUMP JUMPDEST CALLVALUE DUP1 ISZERO PUSH2 0x2BE JUMPI PUSH1 0x0 DUP1 REVERT JUMPDEST POP PUSH2 0x2C7 PUSH2 0xB27 JUMP JUMPDEST PUSH1 0x40 DUP1 MLOAD PUSH1 0x1 PUSH1 0x1 PUSH1 0xA0 SHL SUB SWAP1 SWAP8 AND DUP8 MSTORE PUSH1 0xFF SWAP6 DUP7 AND PUSH1 0x20 DUP9 ADD MSTORE DUP7 ADD SWAP4 SWAP1 SWAP4 MSTORE SWAP3 AND PUSH1 0x60 DUP5 ADD MSTORE PUSH1 0x80 DUP4 ADD SWAP2 SWAP1 SWAP2 MSTORE PUSH1 0xA0 DUP3 ADD MSTORE PUSH1 0xC0 ADD PUSH2 0x156 JUMP JUMPDEST CALLVALUE DUP1 ISZERO PUSH2 0x310 JUMPI PUSH1 0x0 DUP1 REVERT JUMPDEST POP SELFBALANCE PUSH2 0x193 JUMP JUMPDEST CALLVALUE DUP1 ISZERO PUSH2 0x323 JUMPI PUSH1 0x0 DUP1 REVERT JUMPDEST POP PUSH2 0x193 PUSH2 0x332 CALLDATASIZE PUSH1 0x4 PUSH2 0x165E JUMP JUMPDEST PUSH1 0x3 PUSH1 0x20 MSTORE PUSH1 0x0 SWAP1 DUP2 MSTORE PUSH1 0x40 SWAP1 KECCAK256 SLOAD DUP2 JUMP JUMPDEST CALLVALUE DUP1 ISZERO PUSH2 0x350 JUMPI PUSH1 0x0 DUP1 REVERT JUMPDEST POP PUSH2 0x359 PUSH2 0xBC9 JUMP JUMPDEST PUSH1 0x40 MLOAD PUSH2 0x156 SWAP2 SWAP1 PUSH2 0x17C1 JUMP JUMPDEST PUSH2 0x26A PUSH2 0xC2B JUMP JUMPDEST CALLVALUE DUP1 ISZERO PUSH2 0x37A JUMPI PUSH1 0x0 DUP1 REVERT JUMPDEST POP PUSH2 0x142 PUSH32 0x0 DUP2 JUMP JUMPDEST PUSH2 0x26A PUSH2 0x3B0 CALLDATASIZE PUSH1 0x4 PUSH2 0x165E JUMP JUMPDEST PUSH2 0xC37 JUMP JUMPDEST CALLVALUE DUP1 ISZERO PUSH2 0x3C1 JUMPI PUSH1 0x0 DUP1 REVERT JUMPDEST POP PUSH2 0x26A PUSH2 0xCAA JUMP JUMPDEST CALLVALUE DUP1 ISZERO PUSH2 0x3D6 JUMPI PUSH1 0x0 DUP1 REVERT JUMPDEST POP PUSH2 0x142 PUSH2 0x3E5 CALLDATASIZE PUSH1 0x4 PUSH2 0x17D4 JUMP JUMPDEST PUSH2 0xF7F JUMP JUMPDEST CALLER PUSH1 0x1 PUSH1 0x1 PUSH1 0xA0 SHL SUB PUSH32 0x0 AND EQ PUSH2 0x455 JUMPI PUSH1 0x40 MLOAD PUSH3 0x461BCD PUSH1 0xE5 SHL DUP2 MSTORE PUSH1 0x20 PUSH1 0x4 DUP3 ADD MSTORE PUSH1 0xB PUSH1 0x24 DUP3 ADD MSTORE PUSH11 0x4E6F7420666163746F7279 PUSH1 0xA8 SHL PUSH1 0x44 DUP3 ADD MSTORE PUSH1 0x64 ADD JUMPDEST PUSH1 0x40 MLOAD DUP1 SWAP2 SUB SWAP1 REVERT JUMPDEST PUSH1 0x1 PUSH1 0x0 SLOAD PUSH1 0xFF AND PUSH1 0x3 DUP2 GT ISZERO PUSH2 0x46E JUMPI PUSH2 0x46E PUSH2 0x1687 JUMP JUMPDEST EQ PUSH2 0x4AD JUMPI PUSH1 0x40 MLOAD PUSH3 0x461BCD PUSH1 0xE5 SHL DUP2 MSTORE PUSH1 0x20 PUSH1 0x4 DUP3 ADD MSTORE PUSH1 0xF PUSH1 0x24 DUP3 ADD MSTORE PUSH15 0x4E6F7420696E2070726F6772657373 PUSH1 0x88 SHL PUSH1 0x44 DUP3 ADD MSTORE PUSH1 0x64 ADD PUSH2 0x44C JUMP JUMPDEST PUSH1 0x1 SLOAD DUP4 EQ PUSH2 0x4F6 JUMPI PUSH1 0x40 MLOAD PUSH3 0x461BCD PUSH1 0xE5 SHL DUP2 MSTORE PUSH1 0x20 PUSH1 0x4 DUP3 ADD MSTORE PUSH1 0x15 PUSH1 0x24 DUP3 ADD MSTORE PUSH21 0xA0D8C2F2CAE440C6DEEADCE840DAD2E6DAC2E8C6D PUSH1 0x5B SHL PUSH1 0x44 DUP3 ADD MSTORE PUSH1 0x64 ADD PUSH2 0x44C JUMP JUMPDEST DUP1 DUP4 EQ PUSH2 0x53C JUMPI PUSH1 0x40 MLOAD PUSH3 0x461BCD PUSH1 0xE5 SHL DUP2 MSTORE PUSH1 0x20 PUSH1 0x4 DUP3 ADD MSTORE PUSH1 0x14 PUSH1 0x24 DUP3 ADD MSTORE PUSH20 0xA6C6DEE4CA40C6DEEADCE840DAD2E6DAC2E8C6D PUSH1 0x63 SHL PUSH1 0x44 DUP3 ADD MSTORE PUSH1 0x64 ADD PUSH2 0x44C JUMP JUMPDEST PUSH1 0x0 JUMPDEST DUP4 DUP2 LT ISZERO PUSH2 0x63C JUMPI PUSH1 0x2 PUSH1 0x0 DUP7 DUP7 DUP5 DUP2 DUP2 LT PUSH2 0x55D JUMPI PUSH2 0x55D PUSH2 0x17ED JUMP JUMPDEST SWAP1 POP PUSH1 0x20 MUL ADD PUSH1 0x20 DUP2 ADD SWAP1 PUSH2 0x572 SWAP2 SWAP1 PUSH2 0x165E JUMP JUMPDEST PUSH1 0x1 PUSH1 0x1 PUSH1 0xA0 SHL SUB AND DUP2 MSTORE PUSH1 0x20 DUP2 ADD SWAP2 SWAP1 SWAP2 MSTORE PUSH1 0x40 ADD PUSH1 0x0 KECCAK256 SLOAD PUSH1 0xFF AND PUSH2 0x5CC JUMPI PUSH1 0x40 MLOAD PUSH3 0x461BCD PUSH1 0xE5 SHL DUP2 MSTORE PUSH1 0x20 PUSH1 0x4 DUP3 ADD MSTORE PUSH1 0xE PUSH1 0x24 DUP3 ADD MSTORE PUSH14 0x2AB735B737BBB710383630BCB2B9 PUSH1 0x91 SHL PUSH1 0x44 DUP3 ADD MSTORE PUSH1 0x64 ADD PUSH2 0x44C JUMP JUMPDEST DUP3 DUP3 DUP3 DUP2 DUP2 LT PUSH2 0x5DE JUMPI PUSH2 0x5DE PUSH2 0x17ED JUMP JUMPDEST SWAP1 POP PUSH1 0x20 MUL ADD CALLDATALOAD PUSH1 0x3 PUSH1 0x0 DUP8 DUP8 DUP6 DUP2 DUP2 LT PUSH2 0x5FB JUMPI PUSH2 0x5FB PUSH2 0x17ED JUMP JUMPDEST SWAP1 POP PUSH1 0x20 MUL ADD PUSH1 0x20 DUP2 ADD SWAP1 PUSH2 0x610 SWAP2 SWAP1 PUSH2 0x165E JUMP JUMPDEST PUSH1 0x1 PUSH1 0x1 PUSH1 0xA0 SHL SUB AND DUP2 MSTORE PUSH1 0x20 DUP2 ADD SWAP2 SWAP1 SWAP2 MSTORE PUSH1 0x40 ADD PUSH1 0x0 KECCAK256 SSTORE DUP1 PUSH2 0x634 DUP2 PUSH2 0x1819 JUMP JUMPDEST SWAP2 POP POP PUSH2 0x53F JUMP JUMPDEST POP PUSH1 0x0 DUP4 PUSH8 0xFFFFFFFFFFFFFFFF DUP2 GT ISZERO PUSH2 0x658 JUMPI PUSH2 0x658 PUSH2 0x1832 JUMP JUMPDEST PUSH1 0x40 MLOAD SWAP1 DUP1 DUP3 MSTORE DUP1 PUSH1 0x20 MUL PUSH1 0x20 ADD DUP3 ADD PUSH1 0x40 MSTORE DUP1 ISZERO PUSH2 0x681 JUMPI DUP2 PUSH1 0x20 ADD PUSH1 0x20 DUP3 MUL DUP1 CALLDATASIZE DUP4 CALLDATACOPY ADD SWAP1 POP JUMPDEST POP SWAP1 POP PUSH1 0x0 JUMPDEST DUP5 DUP2 LT ISZERO PUSH2 0x6F2 JUMPI DUP6 DUP6 DUP3 DUP2 DUP2 LT PUSH2 0x6A1 JUMPI PUSH2 0x6A1 PUSH2 0x17ED JUMP JUMPDEST SWAP1 POP PUSH1 0x20 MUL ADD PUSH1 0x20 DUP2 ADD SWAP1 PUSH2 0x6B6 SWAP2 SWAP1 PUSH2 0x165E JUMP JUMPDEST DUP3 DUP3 DUP2 MLOAD DUP2 LT PUSH2 0x6C8 JUMPI PUSH2 0x6C8 PUSH2 0x17ED JUMP JUMPDEST PUSH1 0x1 PUSH1 0x1 PUSH1 0xA0 SHL SUB SWAP1 SWAP3 AND PUSH1 0x20 SWAP3 DUP4 MUL SWAP2 SWAP1 SWAP2 ADD SWAP1 SWAP2 ADD MSTORE DUP1 PUSH2 0x6EA DUP2 PUSH2 0x1819 JUMP JUMPDEST SWAP2 POP POP PUSH2 0x687 JUMP JUMPDEST POP PUSH1 0x0 JUMPDEST DUP2 MLOAD DUP2 LT ISZERO PUSH2 0x83B JUMPI PUSH1 0x0 PUSH2 0x70C DUP3 PUSH1 0x1 PUSH2 0x1848 JUMP JUMPDEST SWAP1 POP JUMPDEST DUP3 MLOAD DUP2 LT ISZERO PUSH2 0x828 JUMPI PUSH1 0x3 PUSH1 0x0 DUP5 DUP5 DUP2 MLOAD DUP2 LT PUSH2 0x72E JUMPI PUSH2 0x72E PUSH2 0x17ED JUMP JUMPDEST PUSH1 0x20 MUL PUSH1 0x20 ADD ADD MLOAD PUSH1 0x1 PUSH1 0x1 PUSH1 0xA0 SHL SUB AND PUSH1 0x1 PUSH1 0x1 PUSH1 0xA0 SHL SUB AND DUP2 MSTORE PUSH1 0x20 ADD SWAP1 DUP2 MSTORE PUSH1 0x20 ADD PUSH1 0x0 KECCAK256 SLOAD PUSH1 0x3 PUSH1 0x0 DUP6 DUP5 DUP2 MLOAD DUP2 LT PUSH2 0x76D JUMPI PUSH2 0x76D PUSH2 0x17ED JUMP JUMPDEST PUSH1 0x20 MUL PUSH1 0x20 ADD ADD MLOAD PUSH1 0x1 PUSH1 0x1 PUSH1 0xA0 SHL SUB AND PUSH1 0x1 PUSH1 0x1 PUSH1 0xA0 SHL SUB AND DUP2 MSTORE PUSH1 0x20 ADD SWAP1 DUP2 MSTORE PUSH1 0x20 ADD PUSH1 0x0 KECCAK256 SLOAD GT ISZERO PUSH2 0x816 JUMPI DUP3 DUP2 DUP2 MLOAD DUP2 LT PUSH2 0x7AE JUMPI PUSH2 0x7AE PUSH2 0x17ED JUMP JUMPDEST PUSH1 0x20 MUL PUSH1 0x20 ADD ADD MLOAD DUP4 DUP4 DUP2 MLOAD DUP2 LT PUSH2 0x7C8 JUMPI PUSH2 0x7C8 PUSH2 0x17ED JUMP JUMPDEST PUSH1 0x20 MUL PUSH1 0x20 ADD ADD MLOAD DUP5 DUP5 DUP2 MLOAD DUP2 LT PUSH2 0x7E2 JUMPI PUSH2 0x7E2 PUSH2 0x17ED JUMP JUMPDEST PUSH1 0x20 MUL PUSH1 0x20 ADD ADD DUP6 DUP5 DUP2 MLOAD DUP2 LT PUSH2 0x7FB JUMPI PUSH2 0x7FB PUSH2 0x17ED JUMP JUMPDEST PUSH1 0x1 PUSH1 0x1 PUSH1 0xA0 SHL SUB SWAP4 DUP5 AND PUSH1 0x20 SWAP2 DUP3 MUL SWAP3 SWAP1 SWAP3 ADD ADD MSTORE SWAP2 AND SWAP1 MSTORE JUMPDEST DUP1 PUSH2 0x820 DUP2 PUSH2 0x1819 JUMP JUMPDEST SWAP2 POP POP PUSH2 0x70F JUMP JUMPDEST POP DUP1 PUSH2 0x833 DUP2 PUSH2 0x1819 JUMP JUMPDEST SWAP2 POP POP PUSH2 0x6F6 JUMP JUMPDEST POP PUSH1 0x0 SELFBALANCE SWAP1 POP PUSH1 0x0 PUSH2 0x86F DUP3 PUSH32 0x0 DUP6 MLOAD PUSH2 0xFA9 JUMP JUMPDEST SWAP1 POP PUSH1 0x0 JUMPDEST DUP4 MLOAD DUP2 LT ISZERO PUSH2 0x91A JUMPI DUP2 MLOAD DUP2 LT DUP1 ISZERO PUSH2 0x8A6 JUMPI POP PUSH1 0x0 DUP3 DUP3 DUP2 MLOAD DUP2 LT PUSH2 0x89C JUMPI PUSH2 0x89C PUSH2 0x17ED JUMP JUMPDEST PUSH1 0x20 MUL PUSH1 0x20 ADD ADD MLOAD GT JUMPDEST ISZERO PUSH2 0x908 JUMPI DUP2 DUP2 DUP2 MLOAD DUP2 LT PUSH2 0x8BD JUMPI PUSH2 0x8BD PUSH2 0x17ED JUMP JUMPDEST PUSH1 0x20 MUL PUSH1 0x20 ADD ADD MLOAD PUSH1 0x4 PUSH1 0x0 DUP7 DUP5 DUP2 MLOAD DUP2 LT PUSH2 0x8DB JUMPI PUSH2 0x8DB PUSH2 0x17ED JUMP JUMPDEST PUSH1 0x20 MUL PUSH1 0x20 ADD ADD MLOAD PUSH1 0x1 PUSH1 0x1 PUSH1 0xA0 SHL SUB AND PUSH1 0x1 PUSH1 0x1 PUSH1 0xA0 SHL SUB AND DUP2 MSTORE PUSH1 0x20 ADD SWAP1 DUP2 MSTORE PUSH1 0x20 ADD PUSH1 0x0 KECCAK256 DUP2 SWAP1 SSTORE POP JUMPDEST DUP1 PUSH2 0x912 DUP2 PUSH2 0x1819 JUMP JUMPDEST SWAP2 POP POP PUSH2 0x874 JUMP JUMPDEST POP PUSH1 0x0 DUP1 SLOAD PUSH1 0xFF NOT AND PUSH1 0x2 OR SWAP1 SSTORE PUSH1 0x40 MLOAD PUSH32 0x2E5F0BF3D507CCF88ADF4C4E85D98916FF3BB6F2128331F35F79AA18A080D8B6 SWAP1 PUSH2 0x95A SWAP1 DUP6 SWAP1 DUP5 SWAP1 PUSH2 0x1861 JUMP JUMPDEST PUSH1 0x40 MLOAD DUP1 SWAP2 SUB SWAP1 LOG1 PUSH1 0x0 JUMPDEST DUP4 MLOAD DUP2 LT ISZERO PUSH2 0xB1D JUMPI PUSH1 0x0 PUSH1 0x4 PUSH1 0x0 DUP7 DUP5 DUP2 MLOAD DUP2 LT PUSH2 0x986 JUMPI PUSH2 0x986 PUSH2 0x17ED JUMP JUMPDEST PUSH1 0x20 MUL PUSH1 0x20 ADD ADD MLOAD PUSH1 0x1 PUSH1 0x1 PUSH1 0xA0 SHL SUB AND PUSH1 0x1 PUSH1 0x1 PUSH1 0xA0 SHL SUB AND DUP2 MSTORE PUSH1 0x20 ADD SWAP1 DUP2 MSTORE PUSH1 0x20 ADD PUSH1 0x0 KECCAK256 SLOAD SWAP1 POP PUSH1 0x0 DUP2 GT ISZERO PUSH2 0xB0A JUMPI PUSH1 0x0 PUSH1 0x4 PUSH1 0x0 DUP8 DUP6 DUP2 MLOAD DUP2 LT PUSH2 0x9D2 JUMPI PUSH2 0x9D2 PUSH2 0x17ED JUMP JUMPDEST PUSH1 0x20 MUL PUSH1 0x20 ADD ADD MLOAD PUSH1 0x1 PUSH1 0x1 PUSH1 0xA0 SHL SUB AND PUSH1 0x1 PUSH1 0x1 PUSH1 0xA0 SHL SUB AND DUP2 MSTORE PUSH1 0x20 ADD SWAP1 DUP2 MSTORE PUSH1 0x20 ADD PUSH1 0x0 KECCAK256 DUP2 SWAP1 SSTORE POP PUSH1 0x0 DUP6 DUP4 DUP2 MLOAD DUP2 LT PUSH2 0xA12 JUMPI PUSH2 0xA12 PUSH2 0x17ED JUMP JUMPDEST PUSH1 0x20 MUL PUSH1 0x20 ADD ADD MLOAD PUSH1 0x1 PUSH1 0x1 PUSH1 0xA0 SHL SUB AND DUP3 PUSH1 0x40 MLOAD PUSH1 0x0 PUSH1 0x40 MLOAD DUP1 DUP4 SUB DUP2 DUP6 DUP8 GAS CALL SWAP3 POP POP POP RETURNDATASIZE DUP1 PUSH1 0x0 DUP2 EQ PUSH2 0xA64 JUMPI PUSH1 0x40 MLOAD SWAP2 POP PUSH1 0x1F NOT PUSH1 0x3F RETURNDATASIZE ADD AND DUP3 ADD PUSH1 0x40 MSTORE RETURNDATASIZE DUP3 MSTORE RETURNDATASIZE PUSH1 0x0 PUSH1 0x20 DUP5 ADD RETURNDATACOPY PUSH2 0xA69 JUMP JUMPDEST PUSH1 0x60 SWAP2 POP JUMPDEST POP POP SWAP1 POP DUP1 PUSH2 0xAAC JUMPI PUSH1 0x40 MLOAD PUSH3 0x461BCD PUSH1 0xE5 SHL DUP2 MSTORE PUSH1 0x20 PUSH1 0x4 DUP3 ADD MSTORE PUSH1 0xF PUSH1 0x24 DUP3 ADD MSTORE PUSH15 0x151C985B9CD9995C8819985A5B1959 PUSH1 0x8A SHL PUSH1 0x44 DUP3 ADD MSTORE PUSH1 0x64 ADD PUSH2 0x44C JUMP JUMPDEST DUP6 DUP4 DUP2 MLOAD DUP2 LT PUSH2 0xABE JUMPI PUSH2 0xABE PUSH2 0x17ED JUMP JUMPDEST PUSH1 0x20 MUL PUSH1 0x20 ADD ADD MLOAD PUSH1 0x1 PUSH1 0x1 PUSH1 0xA0 SHL SUB AND PUSH32 0x7084F5476618D8E60B11EF0D7D3F06914655ADB8793E28FF7F018D4C76D505D5 DUP4 PUSH1 0x40 MLOAD PUSH2 0xB00 SWAP2 DUP2 MSTORE PUSH1 0x20 ADD SWAP1 JUMP JUMPDEST PUSH1 0x40 MLOAD DUP1 SWAP2 SUB SWAP1 LOG2 POP JUMPDEST POP DUP1 PUSH2 0xB15 DUP2 PUSH2 0x1819 JUMP JUMPDEST SWAP2 POP POP PUSH2 0x965 JUMP JUMPDEST POP POP POP POP POP POP POP POP JUMP JUMPDEST PUSH1 0x0 DUP1 PUSH1 0x0 DUP1 PUSH1 0x0 DUP1 PUSH32 0x0 PUSH32 0x0 PUSH32 0x0 PUSH1 0x0 DUP1 SLOAD SWAP1 PUSH2 0x100 EXP SWAP1 DIV PUSH1 0xFF AND PUSH1 0x3 DUP2 GT ISZERO PUSH2 0xBB2 JUMPI PUSH2 0xBB2 PUSH2 0x1687 JUMP JUMPDEST PUSH1 0x1 SLOAD SWAP4 SWAP11 SWAP3 SWAP10 POP SWAP1 SWAP8 POP SWAP6 POP SWAP1 SWAP4 POP SELFBALANCE SWAP3 POP SWAP1 POP JUMP JUMPDEST PUSH1 0x60 PUSH1 0x1 DUP1 SLOAD DUP1 PUSH1 0x20 MUL PUSH1 0x20 ADD PUSH1 0x40 MLOAD SWAP1 DUP2 ADD PUSH1 0x40 MSTORE DUP1 SWAP3 SWAP2 SWAP1 DUP2 DUP2 MSTORE PUSH1 0x20 ADD DUP3 DUP1 SLOAD DUP1 ISZERO PUSH2 0xC21 JUMPI PUSH1 0x20 MUL DUP3 ADD SWAP2 SWAP1 PUSH1 0x0 MSTORE PUSH1 0x20 PUSH1 0x0 KECCAK256 SWAP1 JUMPDEST DUP2 SLOAD PUSH1 0x1 PUSH1 0x1 PUSH1 0xA0 SHL SUB AND DUP2 MSTORE PUSH1 0x1 SWAP1 SWAP2 ADD SWAP1 PUSH1 0x20 ADD DUP1 DUP4 GT PUSH2 0xC03 JUMPI JUMPDEST POP POP POP POP POP SWAP1 POP SWAP1 JUMP JUMPDEST PUSH2 0xC35 CALLER CALLVALUE PUSH2 0x1404 JUMP JUMPDEST JUMP JUMPDEST CALLER PUSH1 0x1 PUSH1 0x1 PUSH1 0xA0 SHL SUB PUSH32 0x0 AND EQ PUSH2 0xC9D JUMPI PUSH1 0x40 MLOAD PUSH3 0x461BCD PUSH1 0xE5 SHL DUP2 MSTORE PUSH1 0x20 PUSH1 0x4 DUP3 ADD MSTORE PUSH1 0xB PUSH1 0x24 DUP3 ADD MSTORE PUSH11 0x4E6F7420666163746F7279 PUSH1 0xA8 SHL PUSH1 0x44 DUP3 ADD MSTORE PUSH1 0x64 ADD PUSH2 0x44C JUMP JUMPDEST PUSH2 0xCA7 DUP2 CALLVALUE PUSH2 0x1404 JUMP JUMPDEST POP JUMP JUMPDEST CALLER PUSH1 0x1 PUSH1 0x1 PUSH1 0xA0 SHL SUB PUSH32 0x0 AND EQ DUP1 PUSH2 0xD09 JUMPI POP CALLER PUSH1 0x1 PUSH1 0x1 PUSH1 0xA0 SHL SUB PUSH32 0x0 AND EQ JUMPDEST PUSH2 0xD46 JUMPI PUSH1 0x40 MLOAD PUSH3 0x461BCD PUSH1 0xE5 SHL DUP2 MSTORE PUSH1 0x20 PUSH1 0x4 DUP3 ADD MSTORE PUSH1 0xE PUSH1 0x24 DUP3 ADD MSTORE PUSH14 0x139BDD08185D5D1A1BDC9A5E9959 PUSH1 0x92 SHL PUSH1 0x44 DUP3 ADD MSTORE PUSH1 0x64 ADD PUSH2 0x44C JUMP JUMPDEST PUSH1 0x0 DUP1 SLOAD PUSH1 0xFF AND PUSH1 0x3 DUP2 GT ISZERO PUSH2 0xD5E JUMPI PUSH2 0xD5E PUSH2 0x1687 JUMP JUMPDEST EQ DUP1 PUSH2 0xD80 JUMPI POP PUSH1 0x1 PUSH1 0x0 SLOAD PUSH1 0xFF AND PUSH1 0x3 DUP2 GT ISZERO PUSH2 0xD7E JUMPI PUSH2 0xD7E PUSH2 0x1687 JUMP JUMPDEST EQ JUMPDEST PUSH2 0xDBC JUMPI PUSH1 0x40 MLOAD PUSH3 0x461BCD PUSH1 0xE5 SHL DUP2 MSTORE PUSH1 0x20 PUSH1 0x4 DUP3 ADD MSTORE PUSH1 0xD PUSH1 0x24 DUP3 ADD MSTORE PUSH13 0x10D85B9B9BDD0818D85B98D95B PUSH1 0x9A SHL PUSH1 0x44 DUP3 ADD MSTORE PUSH1 0x64 ADD PUSH2 0x44C JUMP JUMPDEST PUSH1 0x0 DUP1 SLOAD PUSH1 0xFF NOT AND PUSH1 0x3 OR DUP2 SSTORE PUSH1 0x40 MLOAD PUSH32 0x50551F1CB04E981D3D0AE00631C75BAFF563F41FCC0F34BEFBA8E94CE7AA0A95 SWAP2 SWAP1 LOG1 PUSH1 0x0 JUMPDEST PUSH1 0x1 SLOAD DUP2 LT ISZERO PUSH2 0xCA7 JUMPI PUSH1 0x0 PUSH1 0x1 DUP3 DUP2 SLOAD DUP2 LT PUSH2 0xE12 JUMPI PUSH2 0xE12 PUSH2 0x17ED JUMP JUMPDEST PUSH1 0x0 SWAP2 DUP3 MSTORE PUSH1 0x20 DUP1 DUP4 KECCAK256 SWAP1 SWAP2 ADD SLOAD PUSH1 0x1 PUSH1 0x1 PUSH1 0xA0 SHL SUB AND DUP1 DUP4 MSTORE PUSH1 0x2 SWAP1 SWAP2 MSTORE PUSH1 0x40 SWAP1 SWAP2 KECCAK256 SLOAD SWAP1 SWAP2 POP PUSH1 0xFF AND ISZERO PUSH2 0xF6C JUMPI PUSH1 0x1 PUSH1 0x1 PUSH1 0xA0 SHL SUB DUP2 AND PUSH1 0x0 DUP2 DUP2 MSTORE PUSH1 0x2 PUSH1 0x20 MSTORE PUSH1 0x40 DUP1 DUP3 KECCAK256 DUP1 SLOAD PUSH1 0xFF NOT AND SWAP1 SSTORE MLOAD SWAP1 SWAP2 SWAP1 PUSH32 0x0 SWAP1 DUP4 DUP2 DUP2 DUP2 DUP6 DUP8 GAS CALL SWAP3 POP POP POP RETURNDATASIZE DUP1 PUSH1 0x0 DUP2 EQ PUSH2 0xEC1 JUMPI PUSH1 0x40 MLOAD SWAP2 POP PUSH1 0x1F NOT PUSH1 0x3F RETURNDATASIZE ADD AND DUP3 ADD PUSH1 0x40 MSTORE RETURNDATASIZE DUP3 MSTORE RETURNDATASIZE PUSH1 0x0 PUSH1 0x20 DUP5 ADD RETURNDATACOPY PUSH2 0xEC6 JUMP JUMPDEST PUSH1 0x60 SWAP2 POP JUMPDEST POP POP SWAP1 POP DUP1 PUSH2 0xF07 JUMPI PUSH1 0x40 MLOAD PUSH3 0x461BCD PUSH1 0xE5 SHL DUP2 MSTORE PUSH1 0x20 PUSH1 0x4 DUP3 ADD MSTORE PUSH1 0xD PUSH1 0x24 DUP3 ADD MSTORE PUSH13 0x1499599D5B990819985A5B1959 PUSH1 0x9A SHL PUSH1 0x44 DUP3 ADD MSTORE PUSH1 0x64 ADD PUSH2 0x44C JUMP JUMPDEST DUP2 PUSH1 0x1 PUSH1 0x1 PUSH1 0xA0 SHL SUB AND PUSH32 0x7084F5476618D8E60B11EF0D7D3F06914655ADB8793E28FF7F018D4C76D505D5 PUSH32 0x0 PUSH1 0x40 MLOAD PUSH2 0xF62 SWAP2 DUP2 MSTORE PUSH1 0x20 ADD SWAP1 JUMP JUMPDEST PUSH1 0x40 MLOAD DUP1 SWAP2 SUB SWAP1 LOG2 POP JUMPDEST POP DUP1 PUSH2 0xF77 DUP2 PUSH2 0x1819 JUMP JUMPDEST SWAP2 POP POP PUSH2 0xDF3 JUMP JUMPDEST PUSH1 0x1 DUP2 DUP2 SLOAD DUP2 LT PUSH2 0xF8F JUMPI PUSH1 0x0 DUP1 REVERT JUMPDEST PUSH1 0x0 SWAP2 DUP3 MSTORE PUSH1 0x20 SWAP1 SWAP2 KECCAK256 ADD SLOAD PUSH1 0x1 PUSH1 0x1 PUSH1 0xA0 SHL SUB AND SWAP1 POP DUP2 JUMP JUMPDEST PUSH1 0x60 DUP1 DUP4 PUSH1 0xFF AND PUSH1 0x2 SUB PUSH2 0xFFC JUMPI PUSH1 0x40 DUP1 MLOAD PUSH1 0x1 DUP1 DUP3 MSTORE DUP2 DUP4 ADD SWAP1 SWAP3 MSTORE SWAP1 PUSH1 0x20 DUP1 DUP4 ADD SWAP1 DUP1 CALLDATASIZE DUP4 CALLDATACOPY ADD SWAP1 POP POP SWAP1 POP DUP5 DUP2 PUSH1 0x0 DUP2 MLOAD DUP2 LT PUSH2 0xFEB JUMPI PUSH2 0xFEB PUSH2 0x17ED JUMP JUMPDEST PUSH1 0x20 MUL PUSH1 0x20 ADD ADD DUP2 DUP2 MSTORE POP POP PUSH2 0x12DC JUMP JUMPDEST DUP4 PUSH1 0xFF AND PUSH1 0x4 SUB PUSH2 0x1096 JUMPI PUSH1 0x40 DUP1 MLOAD PUSH1 0x2 DUP1 DUP3 MSTORE PUSH1 0x60 DUP3 ADD DUP4 MSTORE SWAP1 SWAP2 PUSH1 0x20 DUP4 ADD SWAP1 DUP1 CALLDATASIZE DUP4 CALLDATACOPY ADD SWAP1 POP POP SWAP1 POP PUSH1 0x64 PUSH2 0x1034 DUP7 PUSH1 0x3C PUSH2 0x18B8 JUMP JUMPDEST PUSH2 0x103E SWAP2 SWAP1 PUSH2 0x18CF JUMP JUMPDEST DUP2 PUSH1 0x0 DUP2 MLOAD DUP2 LT PUSH2 0x1051 JUMPI PUSH2 0x1051 PUSH2 0x17ED JUMP JUMPDEST PUSH1 0x20 MUL PUSH1 0x20 ADD ADD DUP2 DUP2 MSTORE POP POP DUP1 PUSH1 0x0 DUP2 MLOAD DUP2 LT PUSH2 0x1070 JUMPI PUSH2 0x1070 PUSH2 0x17ED JUMP JUMPDEST PUSH1 0x20 MUL PUSH1 0x20 ADD ADD MLOAD DUP6 PUSH2 0x1083 SWAP2 SWAP1 PUSH2 0x18F1 JUMP JUMPDEST DUP2 PUSH1 0x1 DUP2 MLOAD DUP2 LT PUSH2 0xFEB JUMPI PUSH2 0xFEB PUSH2 0x17ED JUMP JUMPDEST DUP4 PUSH1 0xFF AND PUSH1 0x8 SUB PUSH2 0x118B JUMPI PUSH1 0x40 DUP1 MLOAD PUSH1 0x3 DUP1 DUP3 MSTORE PUSH1 0x80 DUP3 ADD SWAP1 SWAP3 MSTORE SWAP1 PUSH1 0x20 DUP3 ADD PUSH1 0x60 DUP1 CALLDATASIZE DUP4 CALLDATACOPY ADD SWAP1 POP POP SWAP1 POP PUSH1 0x64 PUSH2 0x10CF DUP7 PUSH1 0x32 PUSH2 0x18B8 JUMP JUMPDEST PUSH2 0x10D9 SWAP2 SWAP1 PUSH2 0x18CF JUMP JUMPDEST DUP2 PUSH1 0x0 DUP2 MLOAD DUP2 LT PUSH2 0x10EC JUMPI PUSH2 0x10EC PUSH2 0x17ED JUMP JUMPDEST PUSH1 0x20 SWAP1 DUP2 MUL SWAP2 SWAP1 SWAP2 ADD ADD MSTORE PUSH1 0x64 PUSH2 0x1104 DUP7 PUSH1 0x1E PUSH2 0x18B8 JUMP JUMPDEST PUSH2 0x110E SWAP2 SWAP1 PUSH2 0x18CF JUMP JUMPDEST DUP2 PUSH1 0x1 DUP2 MLOAD DUP2 LT PUSH2 0x1121 JUMPI PUSH2 0x1121 PUSH2 0x17ED JUMP JUMPDEST PUSH1 0x20 MUL PUSH1 0x20 ADD ADD DUP2 DUP2 MSTORE POP POP DUP1 PUSH1 0x1 DUP2 MLOAD DUP2 LT PUSH2 0x1140 JUMPI PUSH2 0x1140 PUSH2 0x17ED JUMP JUMPDEST PUSH1 0x20 MUL PUSH1 0x20 ADD ADD MLOAD DUP2 PUSH1 0x0 DUP2 MLOAD DUP2 LT PUSH2 0x115B JUMPI PUSH2 0x115B PUSH2 0x17ED JUMP JUMPDEST PUSH1 0x20 MUL PUSH1 0x20 ADD ADD MLOAD DUP7 PUSH2 0x116E SWAP2 SWAP1 PUSH2 0x18F1 JUMP JUMPDEST PUSH2 0x1178 SWAP2 SWAP1 PUSH2 0x18F1 JUMP JUMPDEST DUP2 PUSH1 0x2 DUP2 MLOAD DUP2 LT PUSH2 0xFEB JUMPI PUSH2 0xFEB PUSH2 0x17ED JUMP JUMPDEST PUSH1 0x40 DUP1 MLOAD PUSH1 0x4 DUP1 DUP3 MSTORE PUSH1 0xA0 DUP3 ADD SWAP1 SWAP3 MSTORE SWAP1 PUSH1 0x20 DUP3 ADD PUSH1 0x80 DUP1 CALLDATASIZE DUP4 CALLDATACOPY ADD SWAP1 POP POP SWAP1 POP PUSH1 0x64 PUSH2 0x11B9 DUP7 PUSH1 0x28 PUSH2 0x18B8 JUMP JUMPDEST PUSH2 0x11C3 SWAP2 SWAP1 PUSH2 0x18CF JUMP JUMPDEST DUP2 PUSH1 0x0 DUP2 MLOAD DUP2 LT PUSH2 0x11D6 JUMPI PUSH2 0x11D6 PUSH2 0x17ED JUMP JUMPDEST PUSH1 0x20 SWAP1 DUP2 MUL SWAP2 SWAP1 SWAP2 ADD ADD MSTORE PUSH1 0x64 PUSH2 0x11EE DUP7 PUSH1 0x19 PUSH2 0x18B8 JUMP JUMPDEST PUSH2 0x11F8 SWAP2 SWAP1 PUSH2 0x18CF JUMP JUMPDEST DUP2 PUSH1 0x1 DUP2 MLOAD DUP2 LT PUSH2 0x120B JUMPI PUSH2 0x120B PUSH2 0x17ED JUMP JUMPDEST PUSH1 0x20 SWAP1 DUP2 MUL SWAP2 SWAP1 SWAP2 ADD ADD MSTORE PUSH1 0x64 PUSH2 0x1223 DUP7 PUSH1 0x14 PUSH2 0x18B8 JUMP JUMPDEST PUSH2 0x122D SWAP2 SWAP1 PUSH2 0x18CF JUMP JUMPDEST DUP2 PUSH1 0x2 DUP2 MLOAD DUP2 LT PUSH2 0x1240 JUMPI PUSH2 0x1240 PUSH2 0x17ED JUMP JUMPDEST PUSH1 0x20 MUL PUSH1 0x20 ADD ADD DUP2 DUP2 MSTORE POP POP DUP1 PUSH1 0x2 DUP2 MLOAD DUP2 LT PUSH2 0x125F JUMPI PUSH2 0x125F PUSH2 0x17ED JUMP JUMPDEST PUSH1 0x20 MUL PUSH1 0x20 ADD ADD MLOAD DUP2 PUSH1 0x1 DUP2 MLOAD DUP2 LT PUSH2 0x127A JUMPI PUSH2 0x127A PUSH2 0x17ED JUMP JUMPDEST PUSH1 0x20 MUL PUSH1 0x20 ADD ADD MLOAD DUP3 PUSH1 0x0 DUP2 MLOAD DUP2 LT PUSH2 0x1295 JUMPI PUSH2 0x1295 PUSH2 0x17ED JUMP JUMPDEST PUSH1 0x20 MUL PUSH1 0x20 ADD ADD MLOAD DUP8 PUSH2 0x12A8 SWAP2 SWAP1 PUSH2 0x18F1 JUMP JUMPDEST PUSH2 0x12B2 SWAP2 SWAP1 PUSH2 0x18F1 JUMP JUMPDEST PUSH2 0x12BC SWAP2 SWAP1 PUSH2 0x18F1 JUMP JUMPDEST DUP2 PUSH1 0x3 DUP2 MLOAD DUP2 LT PUSH2 0x12CF JUMPI PUSH2 0x12CF PUSH2 0x17ED JUMP JUMPDEST PUSH1 0x20 MUL PUSH1 0x20 ADD ADD DUP2 DUP2 MSTORE POP POP JUMPDEST DUP1 MLOAD DUP4 PUSH1 0xFF AND LT ISZERO PUSH2 0x13FA JUMPI PUSH1 0x0 DUP4 PUSH1 0xFF AND PUSH8 0xFFFFFFFFFFFFFFFF DUP2 GT ISZERO PUSH2 0x1306 JUMPI PUSH2 0x1306 PUSH2 0x1832 JUMP JUMPDEST PUSH1 0x40 MLOAD SWAP1 DUP1 DUP3 MSTORE DUP1 PUSH1 0x20 MUL PUSH1 0x20 ADD DUP3 ADD PUSH1 0x40 MSTORE DUP1 ISZERO PUSH2 0x132F JUMPI DUP2 PUSH1 0x20 ADD PUSH1 0x20 DUP3 MUL DUP1 CALLDATASIZE DUP4 CALLDATACOPY ADD SWAP1 POP JUMPDEST POP SWAP1 POP PUSH1 0x0 DUP1 JUMPDEST DUP6 PUSH1 0xFF AND DUP2 LT ISZERO PUSH2 0x13B2 JUMPI DUP4 DUP2 DUP2 MLOAD DUP2 LT PUSH2 0x1353 JUMPI PUSH2 0x1353 PUSH2 0x17ED JUMP JUMPDEST PUSH1 0x20 MUL PUSH1 0x20 ADD ADD MLOAD DUP4 DUP3 DUP2 MLOAD DUP2 LT PUSH2 0x136D JUMPI PUSH2 0x136D PUSH2 0x17ED JUMP JUMPDEST PUSH1 0x20 MUL PUSH1 0x20 ADD ADD DUP2 DUP2 MSTORE POP POP DUP4 DUP2 DUP2 MLOAD DUP2 LT PUSH2 0x138B JUMPI PUSH2 0x138B PUSH2 0x17ED JUMP JUMPDEST PUSH1 0x20 MUL PUSH1 0x20 ADD ADD MLOAD DUP3 PUSH2 0x139E SWAP2 SWAP1 PUSH2 0x1848 JUMP JUMPDEST SWAP2 POP DUP1 PUSH2 0x13AA DUP2 PUSH2 0x1819 JUMP JUMPDEST SWAP2 POP POP PUSH2 0x1336 JUMP JUMPDEST POP DUP1 DUP8 GT ISZERO PUSH2 0x13F0 JUMPI PUSH2 0x13C5 DUP2 DUP9 PUSH2 0x18F1 JUMP JUMPDEST DUP3 PUSH1 0x0 DUP2 MLOAD DUP2 LT PUSH2 0x13D8 JUMPI PUSH2 0x13D8 PUSH2 0x17ED JUMP JUMPDEST PUSH1 0x20 MUL PUSH1 0x20 ADD ADD DUP2 DUP2 MLOAD PUSH2 0x13EC SWAP2 SWAP1 PUSH2 0x1848 JUMP JUMPDEST SWAP1 MSTORE POP JUMPDEST POP SWAP2 POP PUSH2 0x13FD SWAP1 POP JUMP JUMPDEST SWAP1 POP JUMPDEST SWAP4 SWAP3 POP POP POP JUMP JUMPDEST PUSH1 0x0 DUP1 SLOAD PUSH1 0xFF AND PUSH1 0x3 DUP2 GT ISZERO PUSH2 0x141C JUMPI PUSH2 0x141C PUSH2 0x1687 JUMP JUMPDEST EQ PUSH2 0x1454 JUMPI PUSH1 0x40 MLOAD PUSH3 0x461BCD PUSH1 0xE5 SHL DUP2 MSTORE PUSH1 0x20 PUSH1 0x4 DUP3 ADD MSTORE PUSH1 0x8 PUSH1 0x24 DUP3 ADD MSTORE PUSH8 0x2737BA1037B832B7 PUSH1 0xC1 SHL PUSH1 0x44 DUP3 ADD MSTORE PUSH1 0x64 ADD PUSH2 0x44C JUMP JUMPDEST PUSH1 0x1 PUSH1 0x1 PUSH1 0xA0 SHL SUB DUP3 AND PUSH1 0x0 SWAP1 DUP2 MSTORE PUSH1 0x2 PUSH1 0x20 MSTORE PUSH1 0x40 SWAP1 KECCAK256 SLOAD PUSH1 0xFF AND ISZERO PUSH2 0x14AE JUMPI PUSH1 0x40 MLOAD PUSH3 0x461BCD PUSH1 0xE5 SHL DUP2 MSTORE PUSH1 0x20 PUSH1 0x4 DUP3 ADD MSTORE PUSH1 0xE PUSH1 0x24 DUP3 ADD MSTORE PUSH14 0x105B1C9958591E481A9BDA5B9959 PUSH1 0x92 SHL PUSH1 0x44 DUP3 ADD MSTORE PUSH1 0x64 ADD PUSH2 0x44C JUMP JUMPDEST PUSH1 0x1 SLOAD PUSH1 0xFF PUSH32 0x0 AND GT PUSH2 0x150F JUMPI PUSH1 0x40 MLOAD PUSH3 0x461BCD PUSH1 0xE5 SHL DUP2 MSTORE PUSH1 0x20 PUSH1 0x4 DUP3 ADD MSTORE PUSH1 0xA PUSH1 0x24 DUP3 ADD MSTORE PUSH10 0x13585D18DA08199D5B1B PUSH1 0xB2 SHL PUSH1 0x44 DUP3 ADD MSTORE PUSH1 0x64 ADD PUSH2 0x44C JUMP JUMPDEST PUSH32 0x0 DUP2 EQ PUSH2 0x1570 JUMPI PUSH1 0x40 MLOAD PUSH3 0x461BCD PUSH1 0xE5 SHL DUP2 MSTORE PUSH1 0x20 PUSH1 0x4 DUP3 ADD MSTORE PUSH1 0xF PUSH1 0x24 DUP3 ADD MSTORE PUSH15 0x57726F6E6720656E74727920666565 PUSH1 0x88 SHL PUSH1 0x44 DUP3 ADD MSTORE PUSH1 0x64 ADD PUSH2 0x44C JUMP JUMPDEST PUSH1 0x1 PUSH1 0x1 PUSH1 0xA0 SHL SUB DUP3 AND PUSH1 0x0 DUP2 DUP2 MSTORE PUSH1 0x2 PUSH1 0x20 MSTORE PUSH1 0x40 DUP1 DUP3 KECCAK256 DUP1 SLOAD PUSH1 0xFF NOT AND PUSH1 0x1 SWAP1 DUP2 OR SWAP1 SWAP2 SSTORE DUP1 SLOAD DUP1 DUP3 ADD DUP3 SSTORE SWAP1 DUP4 MSTORE PUSH32 0xB10E2D527612073B26EECDFD717E6A320CF44B4AFAC2B0732D9FCBE2B7FA0CF6 ADD DUP1 SLOAD PUSH1 0x1 PUSH1 0x1 PUSH1 0xA0 SHL SUB NOT AND DUP5 OR SWAP1 SSTORE MLOAD PUSH32 0x31E760AA525306ABA638A784082A013B6A1CC0A9A1789F3F22281C0453B10B1F SWAP2 SWAP1 LOG2 PUSH1 0x1 SLOAD PUSH1 0xFF PUSH32 0x0 AND SWAP1 SUB PUSH2 0x165A JUMPI PUSH1 0x0 DUP1 SLOAD PUSH1 0xFF NOT AND PUSH1 0x1 OR DUP2 SSTORE PUSH1 0x40 MLOAD PUSH32 0xAA227B1595385E073AAA86FB89B56070B22B7F4FE69C10DFD6F627E8C42D009C SWAP2 SWAP1 LOG1 JUMPDEST POP POP JUMP JUMPDEST PUSH1 0x0 PUSH1 0x20 DUP3 DUP5 SUB SLT ISZERO PUSH2 0x1670 JUMPI PUSH1 0x0 DUP1 REVERT JUMPDEST DUP2 CALLDATALOAD PUSH1 0x1 PUSH1 0x1 PUSH1 0xA0 SHL SUB DUP2 AND DUP2 EQ PUSH2 0x13FD JUMPI PUSH1 0x0 DUP1 REVERT JUMPDEST PUSH4 0x4E487B71 PUSH1 0xE0 SHL PUSH1 0x0 MSTORE PUSH1 0x21 PUSH1 0x4 MSTORE PUSH1 0x24 PUSH1 0x0 REVERT JUMPDEST PUSH1 0x20 DUP2 ADD PUSH1 0x4 DUP4 LT PUSH2 0x16BF JUMPI PUSH4 0x4E487B71 PUSH1 0xE0 SHL PUSH1 0x0 MSTORE PUSH1 0x21 PUSH1 0x4 MSTORE PUSH1 0x24 PUSH1 0x0 REVERT JUMPDEST SWAP2 SWAP1 MSTORE SWAP1 JUMP JUMPDEST PUSH1 0x0 DUP1 DUP4 PUSH1 0x1F DUP5 ADD SLT PUSH2 0x16D7 JUMPI PUSH1 0x0 DUP1 REVERT JUMPDEST POP DUP2 CALLDATALOAD PUSH8 0xFFFFFFFFFFFFFFFF DUP2 GT ISZERO PUSH2 0x16EF JUMPI PUSH1 0x0 DUP1 REVERT JUMPDEST PUSH1 0x20 DUP4 ADD SWAP2 POP DUP4 PUSH1 0x20 DUP3 PUSH1 0x5 SHL DUP6 ADD ADD GT ISZERO PUSH2 0x170A JUMPI PUSH1 0x0 DUP1 REVERT JUMPDEST SWAP3 POP SWAP3 SWAP1 POP JUMP JUMPDEST PUSH1 0x0 DUP1 PUSH1 0x0 DUP1 PUSH1 0x40 DUP6 DUP8 SUB SLT ISZERO PUSH2 0x1727 JUMPI PUSH1 0x0 DUP1 REVERT JUMPDEST DUP5 CALLDATALOAD PUSH8 0xFFFFFFFFFFFFFFFF DUP1 DUP3 GT ISZERO PUSH2 0x173F JUMPI PUSH1 0x0 DUP1 REVERT JUMPDEST PUSH2 0x174B DUP9 DUP4 DUP10 ADD PUSH2 0x16C5 JUMP JUMPDEST SWAP1 SWAP7 POP SWAP5 POP PUSH1 0x20 DUP8 ADD CALLDATALOAD SWAP2 POP DUP1 DUP3 GT ISZERO PUSH2 0x1764 JUMPI PUSH1 0x0 DUP1 REVERT JUMPDEST POP PUSH2 0x1771 DUP8 DUP3 DUP9 ADD PUSH2 0x16C5 JUMP JUMPDEST SWAP6 SWAP9 SWAP5 SWAP8 POP SWAP6 POP POP POP POP JUMP JUMPDEST PUSH1 0x0 DUP2 MLOAD DUP1 DUP5 MSTORE PUSH1 0x20 DUP1 DUP6 ADD SWAP5 POP DUP1 DUP5 ADD PUSH1 0x0 JUMPDEST DUP4 DUP2 LT ISZERO PUSH2 0x17B6 JUMPI DUP2 MLOAD PUSH1 0x1 PUSH1 0x1 PUSH1 0xA0 SHL SUB AND DUP8 MSTORE SWAP6 DUP3 ADD SWAP6 SWAP1 DUP3 ADD SWAP1 PUSH1 0x1 ADD PUSH2 0x1791 JUMP JUMPDEST POP SWAP5 SWAP6 SWAP5 POP POP POP POP POP JUMP JUMPDEST PUSH1 0x20 DUP2 MSTORE PUSH1 0x0 PUSH2 0x13FD PUSH1 0x20 DUP4 ADD DUP5 PUSH2 0x177D JUMP JUMPDEST PUSH1 0x0 PUSH1 0x20 DUP3 DUP5 SUB SLT ISZERO PUSH2 0x17E6 JUMPI PUSH1 0x0 DUP1 REVERT JUMPDEST POP CALLDATALOAD SWAP2 SWAP1 POP JUMP JUMPDEST PUSH4 0x4E487B71 PUSH1 0xE0 SHL PUSH1 0x0 MSTORE PUSH1 0x32 PUSH1 0x4 MSTORE PUSH1 0x24 PUSH1 0x0 REVERT JUMPDEST PUSH4 0x4E487B71 PUSH1 0xE0 SHL PUSH1 0x0 MSTORE PUSH1 0x11 PUSH1 0x4 MSTORE PUSH1 0x24 PUSH1 0x0 REVERT JUMPDEST PUSH1 0x0 PUSH1 0x1 DUP3 ADD PUSH2 0x182B JUMPI PUSH2 0x182B PUSH2 0x1803 JUMP JUMPDEST POP PUSH1 0x1 ADD SWAP1 JUMP JUMPDEST PUSH4 0x4E487B71 PUSH1 0xE0 SHL PUSH1 0x0 MSTORE PUSH1 0x41 PUSH1 0x4 MSTORE PUSH1 0x24 PUSH1 0x0 REVERT JUMPDEST DUP1 DUP3 ADD DUP1 DUP3 GT ISZERO PUSH2 0x185B JUMPI PUSH2 0x185B PUSH2 0x1803 JUMP JUMPDEST SWAP3 SWAP2 POP POP JUMP JUMPDEST PUSH1 0x40 DUP2 MSTORE PUSH1 0x0 PUSH2 0x1874 PUSH1 0x40 DUP4 ADD DUP6 PUSH2 0x177D JUMP JUMPDEST DUP3 DUP2 SUB PUSH1 0x20 DUP5 DUP2 ADD SWAP2 SWAP1 SWAP2 MSTORE DUP5 MLOAD DUP1 DUP4 MSTORE DUP6 DUP3 ADD SWAP3 DUP3 ADD SWAP1 PUSH1 0x0 JUMPDEST DUP2 DUP2 LT ISZERO PUSH2 0x18AB JUMPI DUP5 MLOAD DUP4 MSTORE SWAP4 DUP4 ADD SWAP4 SWAP2 DUP4 ADD SWAP2 PUSH1 0x1 ADD PUSH2 0x188F JUMP JUMPDEST POP SWAP1 SWAP8 SWAP7 POP POP POP POP POP POP POP JUMP JUMPDEST DUP1 DUP3 MUL DUP2 ISZERO DUP3 DUP3 DIV DUP5 EQ OR PUSH2 0x185B JUMPI PUSH2 0x185B PUSH2 0x1803 JUMP JUMPDEST PUSH1 0x0 DUP3 PUSH2 0x18EC JUMPI PUSH4 0x4E487B71 PUSH1 0xE0 SHL PUSH1 0x0 MSTORE PUSH1 0x12 PUSH1 0x4 MSTORE PUSH1 0x24 PUSH1 0x0 REVERT JUMPDEST POP DIV SWAP1 JUMP JUMPDEST DUP2 DUP2 SUB DUP2 DUP2 GT ISZERO PUSH2 0x185B JUMPI PUSH2 0x185B PUSH2 0x1803 JUMP INVALID LOG2 PUSH5 0x6970667358 0x22 SLT KECCAK256 RETURNDATASIZE 0xC0 0xAD 0x4C 0xEA MSTORE GASPRICE 0xBE DUP5 0xB9 NUMBER SDIV 0x2F BLOCKHASH CALL DUP10 0xEF PUSH25 0x88E1B9257A472EC93520B555DC9B64736F6C63430008140033 LOG2 PUSH5 0x6970667358 0x22 SLT KECCAK256 0xB4 DUP1 0xA7 MSIZE PUSH7 0x5C5540F524D65 PUSH32 0x5E602F0AB708E0EA455E67E4E25FB23F44E9C064736F6C634300081400330000 "},"methodIdentifiers":{"allMatches(uint256)":"afa71d11","cancelMatch(address)":"2345574b","createMatch(uint8,uint256)":"9c4e1329","getMatchInfo(address)":"189373f0","getMatches(uint256,uint256)":"e22c435e","getOpenMatches()":"554bfee2","isMatch(address)":"bd09e8fa","matchCount()":"79c4264b","owner()":"8da5cb5b","submitResults(address,address[],uint256[])":"5b294a37"}}}}}