{
  "_format": "hh-sol-artifact-1",
  "contractName": "GameManager",
  "sourceName": "contracts/GameManager.sol",
  "abi": [
    {
      "inputs": [
        {
          "internalType": "address",
          "name": "_stakingAdapter",
          "type": "address"
        }
      ],
      "stateMutability": "nonpayable",
      "type": "constructor"
    },
    {
      "anonymous": false,
      "inputs": [
        {
          "indexed": true,
          "internalType": "uint256",
          "name": "lobbyId",
          "type": "uint256"
        },
        {
          "indexed": true,
          "internalType": "address",
          "name": "winner",
          "type": "address"
        },
        {
          "indexed": false,
          "internalType": "uint256",
          "name": "prizeAmount",
          "type": "uint256"
        }
      ],
      "name": "GameResolved",
      "type": "event"
    },
    {
      "anonymous": false,
      "inputs": [
        {
          "indexed": true,
          "internalType": "uint256",
          "name": "lobbyId",
          "type": "uint256"
        }
      ],
      "name": "LobbyCancelled",
      "type": "event"
    },
    {
      "anonymous": false,
      "inputs": [
        {
          "indexed": true,
          "internalType": "uint256",
          "name": "lobbyId",
          "type": "uint256"
        },
        {
          "indexed": true,
          "internalType": "address",
          "name": "host",
          "type": "address"
        },
        {
          "indexed": false,
          "internalType": "uint256",
          "name": "buyIn",
          "type": "uint256"
        },
        {
          "indexed": false,
          "internalType": "uint256",
          "name": "maxPlayers",
          "type": "uint256"
        }
      ],
      "name": "LobbyCreated",
      "type": "event"
    },
    {
      "anonymous": false,
      "inputs": [
        {
          "indexed": true,
          "internalType": "uint256",
          "name": "lobbyId",
          "type": "uint256"
        },
        {
          "indexed": true,
          "internalType": "address",
          "name": "player",
          "type": "address"
        }
      ],
      "name": "PlayerJoined",
      "type": "event"
    },
    {
      "inputs": [],
      "name": "admin",
      "outputs": [
        {
          "internalType": "address",
          "name": "",
          "type": "address"
        }
      ],
      "stateMutability": "view",
      "type": "function"
    },
    {
      "inputs": [
        {
          "internalType": "uint256",
          "name": "lobbyId",
          "type": "uint256"
        }
      ],
      "name": "cancelLobby",
      "outputs": [],
      "stateMutability": "nonpayable",
      "type": "function"
    },
    {
      "inputs": [
        {
          "internalType": "uint256",
          "name": "buyIn",
          "type": "uint256"
        },
        {
          "internalType": "uint256",
          "name": "maxPlayers",
          "type": "uint256"
        }
      ],
      "name": "createLobby",
      "outputs": [
        {
          "internalType": "uint256",
          "name": "",
          "type": "uint256"
        }
      ],
      "stateMutability": "nonpayable",
      "type": "function"
    },
    {
      "inputs": [
        {
          "internalType": "uint256",
          "name": "lobbyId",
          "type": "uint256"
        }
      ],
      "name": "getLobby",
      "outputs": [
        {
          "internalType": "address",
          "name": "host",
          "type": "address"
        },
        {
          "internalType": "uint256",
          "name": "buyIn",
          "type": "uint256"
        },
        {
          "internalType": "uint256",
          "name": "maxPlayers",
          "type": "uint256"
        },
        {
          "internalType": "address[]",
          "name": "players",
          "type": "address[]"
        },
        {
          "internalType": "bool",
          "name": "resolved",
          "type": "bool"
        },
        {
          "internalType": "bool",
          "name": "active",
          "type": "bool"
        },
        {
          "internalType": "uint256",
          "name": "prizePool",
          "type": "uint256"
        }
      ],
      "stateMutability": "view",
      "type": "function"
    },
    {
      "inputs": [],
      "name": "getLobbyCount",
      "outputs": [
        {
          "internalType": "uint256",
          "name": "",
          "type": "uint256"
        }
      ],
      "stateMutability": "view",
      "type": "function"
    },
    {
      "inputs": [
        {
          "internalType": "uint256",
          "name": "lobbyId",
          "type": "uint256"
        }
      ],
      "name": "getLobbyPlayerCount",
      "outputs": [
        {
          "internalType": "uint256",
          "name": "",
          "type": "uint256"
        }
      ],
      "stateMutability": "view",
      "type": "function"
    },
    {
      "inputs": [
        {
          "internalType": "uint256",
          "name": "",
          "type": "uint256"
        },
        {
          "internalType": "address",
          "name": "",
          "type": "address"
        }
      ],
      "name": "isPlayerInLobby",
      "outputs": [
        {
          "internalType": "bool",
          "name": "",
          "type": "bool"
        }
      ],
      "stateMutability": "view",
      "type": "function"
    },
    {
      "inputs": [
        {
          "internalType": "uint256",
          "name": "lobbyId",
          "type": "uint256"
        }
      ],
      "name": "joinLobby",
      "outputs": [],
      "stateMutability": "nonpayable",
      "type": "function"
    },
    {
      "inputs": [
        {
          "internalType": "uint256",
          "name": "",
          "type": "uint256"
        }
      ],
      "name": "lobbies",
      "outputs": [
        {
          "internalType": "address",
          "name": "host",
          "type": "address"
        },
        {
          "internalType": "uint256",
          "name": "buyIn",
          "type": "uint256"
        },
        {
          "internalType": "uint256",
          "name": "maxPlayers",
          "type": "uint256"
        },
        {
          "internalType": "bool",
          "name": "resolved",
          "type": "bool"
        },
        {
          "internalType": "bool",
          "name": "active",
          "type": "bool"
        },
        {
          "internalType": "uint256",
          "name": "prizePool",
          "type": "uint256"
        }
      ],
      "stateMutability": "view",
      "type": "function"
    },
    {
      "inputs": [],
      "name": "lobbyCount",
      "outputs": [
        {
          "internalType": "uint256",
          "name": "",
          "type": "uint256"
        }
      ],
      "stateMutability": "view",
      "type": "function"
    },
    {
      "inputs": [
        {
          "internalType": "uint256",
          "name": "lobbyId",
          "type": "uint256"
        },
        {
          "internalType": "address",
          "name": "winner",
          "type": "address"
        }
      ],
      "name": "resolveGame",
      "outputs": [],
      "stateMutability": "nonpayable",
      "type": "function"
    },
    {
      "inputs": [],
      "name": "stakingAdapter",
      "outputs": [
        {
          "internalType": "contract StakingAdapter",
          "name": "",
          "type": "address"
        }
      ],
      "stateMutability": "view",
      "type": "function"
    }
  ],
  "bytecode": "0x608060405234801561001057600080fd5b50604051610e1f380380610e1f83398101604081905261002f916100a6565b6001600160a01b0381166100785760405162461bcd60e51b815260206004820152600c60248201526b5a65726f206164647265737360a01b604482015260640160405180910390fd5b600080546001600160a01b039092166001600160a01b031992831617905560018054909116331790556100d6565b6000602082840312156100b857600080fd5b81516001600160a01b03811681146100cf57600080fd5b9392505050565b610d3a806100e56000396000f3fe608060405234801561001057600080fd5b50600436106100b45760003560e01c8063a4a9a4ad11610071578063a4a9a4ad146101f4578063da43237714610207578063e9173b3a1461022a578063eff3d3061461023d578063f851a44014610246578063ff4655231461025957600080fd5b806311ca230b146100b95780634cbb98f4146100ce578063559ab8cc146100fe57806361f5b6561461013c5780636785a6661461015d5780636e8fb4c614610165575b600080fd5b6100cc6100c7366004610b83565b61027f565b005b6000546100e1906001600160a01b031681565b6040516001600160a01b0390911681526020015b60405180910390f35b61012c61010c366004610b83565b600460209081526000928352604080842090915290825290205460ff1681565b60405190151581526020016100f5565b61014f61014a366004610bbf565b61048a565b6040519081526020016100f5565b60035461014f565b6101b9610173366004610be1565b6002602081905260009182526040909120805460018201549282015460048301546005909301546001600160a01b039092169392909160ff808316926101009004169086565b604080516001600160a01b039097168752602087019590955293850192909252151560608401521515608083015260a082015260c0016100f5565b6100cc610202366004610be1565b6106b8565b61014f610215366004610be1565b60009081526002602052604090206003015490565b6100cc610238366004610be1565b610890565b61014f60035481565b6001546100e1906001600160a01b031681565b61026c610267366004610be1565b610ab8565b6040516100f59796959493929190610bfa565b6001546001600160a01b031633146102ca5760405162461bcd60e51b81526020600482015260096024820152682737ba1030b236b4b760b91b60448201526064015b60405180910390fd5b60008281526002602052604090206004810154610100900460ff166103015760405162461bcd60e51b81526004016102c190610c82565b600481015460ff16156103495760405162461bcd60e51b815260206004820152601060248201526f105b1c9958591e481c995cdbdb1d995960821b60448201526064016102c1565b60008381526004602090815260408083206001600160a01b038616845290915290205460ff166103b15760405162461bcd60e51b815260206004820152601360248201527257696e6e6572206e6f7420696e206c6f62627960681b60448201526064016102c1565b6004808201805461ffff191660011790556000546005830154604051635943e5d760e01b81526001600160a01b0390921692635943e5d79261040b9287929091016001600160a01b03929092168252602082015260400190565b600060405180830381600087803b15801561042557600080fd5b505af1158015610439573d6000803e3d6000fd5b50505050816001600160a01b0316837f36e33eea5df2e6c873949c5c856feb597f250ea8a329ed5ac38c39ab96905359836005015460405161047d91815260200190565b60405180910390a3505050565b60008083116104d05760405162461bcd60e51b815260206004820152601260248201527104275792d696e206d757374206265203e20360741b60448201526064016102c1565b600282101580156104e2575060108211155b6105255760405162461bcd60e51b8152602060048201526014602482015273125b9d985b1a59081c1b185e595c8818dbdd5b9d60621b60448201526064016102c1565b600380546000918261053683610cc2565b90915550600081815260026020819052604080832080546001600160a01b031916339081178255600182018a90559281018890556004808201805461ff001916610100179055935491516337805cc960e11b81529384019290925260248301889052929350916001600160a01b031690636f00b99290604401600060405180830381600087803b1580156105c957600080fd5b505af11580156105dd573d6000803e3d6000fd5b5050506003820180546001810182556000918252602082200180546001600160a01b0319163317905560058301805488935090919061061d908490610cdb565b909155505060008281526004602090815260408083203380855290835292819020805460ff19166001179055805188815291820187905284917fbb95fcc8103415365e7eba6a006a82f8915baf6fce1942c386c610acb6e9bb56910160405180910390a3604051339083907f87969bc7faf902221a147b95ceba76e011c5efb0339a0a8ee7a2bb82d9cfbbd690600090a35090505b92915050565b60008181526002602052604090206004810154610100900460ff166106ef5760405162461bcd60e51b81526004016102c190610c82565b600481015460ff16156107375760405162461bcd60e51b815260206004820152601060248201526f105b1c9958591e481c995cdbdb1d995960821b60448201526064016102c1565b80546001600160a01b031633148061075957506001546001600160a01b031633145b6107965760405162461bcd60e51b815260206004820152600e60248201526d139bdd08185d5d1a1bdc9a5e995960921b60448201526064016102c1565b60048101805461ff001916905560005b6003820154811015610860576000546003830180546001600160a01b0390921691635943e5d79190849081106107de576107de610cee565b600091825260209091200154600185015460405160e084901b6001600160e01b03191681526001600160a01b0390921660048301526024820152604401600060405180830381600087803b15801561083557600080fd5b505af1158015610849573d6000803e3d6000fd5b50505050808061085890610cc2565b9150506107a6565b5060405182907f77c76c657e315ec4202d02d6b866770c4edbabe032e6c201ca6d18859c470a3790600090a25050565b60008181526002602052604090206004810154610100900460ff166108c75760405162461bcd60e51b81526004016102c190610c82565b600481015460ff16156109155760405162461bcd60e51b8152602060048201526016602482015275131bd8989e48185b1c9958591e481c995cdbdb1d995960521b60448201526064016102c1565b60028101546003820154106109595760405162461bcd60e51b815260206004820152600a602482015269131bd8989e48199d5b1b60b21b60448201526064016102c1565b600082815260046020908152604080832033845290915290205460ff16156109b65760405162461bcd60e51b815260206004820152601060248201526f416c726561647920696e206c6f62627960801b60448201526064016102c1565b60005460018201546040516337805cc960e11b815233600482015260248101919091526001600160a01b0390911690636f00b99290604401600060405180830381600087803b158015610a0857600080fd5b505af1158015610a1c573d6000803e3d6000fd5b5050506003820180546001818101835560009283526020832090910180546001600160a01b031916331790558301546005840180549193509190610a61908490610cdb565b90915550506000828152600460209081526040808320338085529252808320805460ff1916600117905551909184917f87969bc7faf902221a147b95ceba76e011c5efb0339a0a8ee7a2bb82d9cfbbd69190a35050565b60008181526002602081815260408084208054600182015494820154600483015460058401546003850180548751818a0281018a019098528088528a998a996060998b998a998a9991986001600160a01b039091169794969195919460ff80831695610100909304169390929091869190830182828015610b6257602002820191906000526020600020905b81546001600160a01b03168152600190910190602001808311610b44575b50505050509350975097509750975097509750975050919395979092949650565b60008060408385031215610b9657600080fd5b8235915060208301356001600160a01b0381168114610bb457600080fd5b809150509250929050565b60008060408385031215610bd257600080fd5b50508035926020909101359150565b600060208284031215610bf357600080fd5b5035919050565b600060e0820160018060a01b03808b16845260208a8186015289604086015260e0606086015282895180855261010087019150828b01945060005b81811015610c53578551851683529483019491830191600101610c35565b5050881515608087015287151560a08701529350610c7092505050565b8260c083015298975050505050505050565b60208082526010908201526f4c6f626279206e6f742061637469766560801b604082015260600190565b634e487b7160e01b600052601160045260246000fd5b600060018201610cd457610cd4610cac565b5060010190565b808201808211156106b2576106b2610cac565b634e487b7160e01b600052603260045260246000fdfea2646970667358221220f4c01b54b8e349e3593c8a0536066f4c4438d514a050faeb7d40dfe005a076cd64736f6c63430008140033",
  "linkReferences": {},
  "deployedLinkReferences": {}
}