{
  "_format": "hh-sol-artifact-1",
  "contractName": "Match",
  "sourceName": "contracts/Match.sol",
  "abi": [
    {
      "inputs": [
        {
          "internalType": "address",
          "name": "_creator",
          "type": "address"
        },
        {
          "internalType": "uint8",
          "name": "_maxPlayers",
          "type": "uint8"
        },
        {
          "internalType": "uint256",
          "name": "_entryFee",
          "type": "uint256"
        }
      ],
      "stateMutability": "nonpayable",
      "type": "constructor"
    },
    {
      "anonymous": false,
      "inputs": [],
      "name": "MatchCancelled",
      "type": "event"
    },
    {
      "anonymous": false,
      "inputs": [
        {
          "indexed": false,
          "internalType": "address[]",
          "name": "ranked",
          "type": "address[]"
        },
        {
          "indexed": false,
          "internalType": "uint256[]",
          "name": "payouts",
          "type": "uint256[]"
        }
      ],
      "name": "MatchCompleted",
      "type": "event"
    },
    {
      "anonymous": false,
      "inputs": [],
      "name": "MatchStarted",
      "type": "event"
    },
    {
      "anonymous": false,
      "inputs": [
        {
          "indexed": true,
          "internalType": "address",
          "name": "player",
          "type": "address"
        }
      ],
      "name": "PlayerJoined",
      "type": "event"
    },
    {
      "anonymous": false,
      "inputs": [
        {
          "indexed": true,
          "internalType": "address",
          "name": "player",
          "type": "address"
        },
        {
          "indexed": false,
          "internalType": "uint256",
          "name": "amount",
          "type": "uint256"
        }
      ],
      "name": "Withdrawn",
      "type": "event"
    },
    {
      "inputs": [],
      "name": "cancel",
      "outputs": [],
      "stateMutability": "nonpayable",
      "type": "function"
    },
    {
      "inputs": [],
      "name": "creator",
      "outputs": [
        {
          "internalType": "address",
          "name": "",
          "type": "address"
        }
      ],
      "stateMutability": "view",
      "type": "function"
    },
    {
      "inputs": [
        {
          "internalType": "address",
          "name": "",
          "type": "address"
        }
      ],
      "name": "enrolled",
      "outputs": [
        {
          "internalType": "bool",
          "name": "",
          "type": "bool"
        }
      ],
      "stateMutability": "view",
      "type": "function"
    },
    {
      "inputs": [],
      "name": "entryFee",
      "outputs": [
        {
          "internalType": "uint256",
          "name": "",
          "type": "uint256"
        }
      ],
      "stateMutability": "view",
      "type": "function"
    },
    {
      "inputs": [],
      "name": "factory",
      "outputs": [
        {
          "internalType": "address",
          "name": "",
          "type": "address"
        }
      ],
      "stateMutability": "view",
      "type": "function"
    },
    {
      "inputs": [],
      "name": "getInfo",
      "outputs": [
        {
          "internalType": "address",
          "name": "_creator",
          "type": "address"
        },
        {
          "internalType": "uint8",
          "name": "_maxPlayers",
          "type": "uint8"
        },
        {
          "internalType": "uint256",
          "name": "_entryFee",
          "type": "uint256"
        },
        {
          "internalType": "uint8",
          "name": "_status",
          "type": "uint8"
        },
        {
          "internalType": "uint256",
          "name": "_playerCount",
          "type": "uint256"
        },
        {
          "internalType": "uint256",
          "name": "_prizePool",
          "type": "uint256"
        }
      ],
      "stateMutability": "view",
      "type": "function"
    },
    {
      "inputs": [],
      "name": "getPlayers",
      "outputs": [
        {
          "internalType": "address[]",
          "name": "",
          "type": "address[]"
        }
      ],
      "stateMutability": "view",
      "type": "function"
    },
    {
      "inputs": [],
      "name": "join",
      "outputs": [],
      "stateMutability": "payable",
      "type": "function"
    },
    {
      "inputs": [
        {
          "internalType": "address",
          "name": "_player",
          "type": "address"
        }
      ],
      "name": "joinFor",
      "outputs": [],
      "stateMutability": "payable",
      "type": "function"
    },
    {
      "inputs": [],
      "name": "maxPlayers",
      "outputs": [
        {
          "internalType": "uint8",
          "name": "",
          "type": "uint8"
        }
      ],
      "stateMutability": "view",
      "type": "function"
    },
    {
      "inputs": [
        {
          "internalType": "address",
          "name": "",
          "type": "address"
        }
      ],
      "name": "payout",
      "outputs": [
        {
          "internalType": "uint256",
          "name": "",
          "type": "uint256"
        }
      ],
      "stateMutability": "view",
      "type": "function"
    },
    {
      "inputs": [],
      "name": "playerCount",
      "outputs": [
        {
          "internalType": "uint256",
          "name": "",
          "type": "uint256"
        }
      ],
      "stateMutability": "view",
      "type": "function"
    },
    {
      "inputs": [
        {
          "internalType": "uint256",
          "name": "",
          "type": "uint256"
        }
      ],
      "name": "players",
      "outputs": [
        {
          "internalType": "address",
          "name": "",
          "type": "address"
        }
      ],
      "stateMutability": "view",
      "type": "function"
    },
    {
      "inputs": [],
      "name": "prizePool",
      "outputs": [
        {
          "internalType": "uint256",
          "name": "",
          "type": "uint256"
        }
      ],
      "stateMutability": "view",
      "type": "function"
    },
    {
      "inputs": [
        {
          "internalType": "address",
          "name": "",
          "type": "address"
        }
      ],
      "name": "scores",
      "outputs": [
        {
          "internalType": "uint256",
          "name": "",
          "type": "uint256"
        }
      ],
      "stateMutability": "view",
      "type": "function"
    },
    {
      "inputs": [],
      "name": "status",
      "outputs": [
        {
          "internalType": "enum Match.Status",
          "name": "",
          "type": "uint8"
        }
      ],
      "stateMutability": "view",
      "type": "function"
    },
    {
      "inputs": [
        {
          "internalType": "address[]",
          "name": "_players",
          "type": "address[]"
        },
        {
          "internalType": "uint256[]",
          "name": "_scores",
          "type": "uint256[]"
        }
      ],
      "name": "submitResults",
      "outputs": [],
      "stateMutability": "nonpayable",
      "type": "function"
    },
    {
      "stateMutability": "payable",
      "type": "receive"
    }
  ],
  "bytecode": "0x6101006040523480156200001257600080fd5b5060405162001b9c38038062001b9c833981016040819052620000359162000175565b6001600160a01b038316620000805760405162461bcd60e51b815260206004820152600c60248201526b2d32b9379031b932b0ba37b960a11b60448201526064015b60405180910390fd5b8160ff16600214806200009657508160ff166004145b80620000a557508160ff166008145b80620000b457508160ff166010145b620000f75760405162461bcd60e51b8152602060048201526012602482015271496e76616c6964206d6178506c617965727360701b604482015260640162000077565b60008111620001495760405162461bcd60e51b815260206004820152601560248201527f456e74727920666565206d757374206265203e20300000000000000000000000604482015260640162000077565b336080526001600160a01b039290921660a05260ff1660c05260e0526000805460ff19169055620001cd565b6000806000606084860312156200018b57600080fd5b83516001600160a01b0381168114620001a357600080fd5b602085015190935060ff81168114620001bb57600080fd5b80925050604084015190509250925092565b60805160a05160c05160e05161193a620002626000396000818161017101528181610b7401528181610e6901528181610f34015261151101526000818161027e0152818161084901528181610b53015281816114b501526115ff01526000818161012001528181610b320152610cb5015260008181610380015281816103f501528181610c420152610ce7015261193a6000f3fe6080604052600436106101025760003560e01c80635a9b0b8911610095578063b688a36311610064578063b688a36314610366578063c45a01551461036e578063d6f83876146103a2578063ea8a1af0146103b5578063f71d96cb146103ca57600080fd5b80635a9b0b89146102b2578063719ce73e1461030457806376dd110f146103175780638b5b9ccc1461034457600080fd5b8063200d2ed2116100d1578063200d2ed21461020e578063302bcc57146102355780634b556cf91461024a5780634c2412a21461026c57600080fd5b806302d05d3f1461010e578063072ea61c1461015f5780630b7e9c44146101a157806310eb0e0e146101ce57600080fd5b3661010957005b600080fd5b34801561011a57600080fd5b506101427f000000000000000000000000000000000000000000000000000000000000000081565b6040516001600160a01b0390911681526020015b60405180910390f35b34801561016b57600080fd5b506101937f000000000000000000000000000000000000000000000000000000000000000081565b604051908152602001610156565b3480156101ad57600080fd5b506101936101bc36600461165e565b60046020526000908152604090205481565b3480156101da57600080fd5b506101fe6101e936600461165e565b60026020526000908152604090205460ff1681565b6040519015158152602001610156565b34801561021a57600080fd5b506000546102289060ff1681565b604051610156919061169d565b34801561024157600080fd5b50600154610193565b34801561025657600080fd5b5061026a610265366004611711565b6103ea565b005b34801561027857600080fd5b506102a07f000000000000000000000000000000000000000000000000000000000000000081565b60405160ff9091168152602001610156565b3480156102be57600080fd5b506102c7610b27565b604080516001600160a01b03909716875260ff958616602088015286019390935292166060840152608083019190915260a082015260c001610156565b34801561031057600080fd5b5047610193565b34801561032357600080fd5b5061019361033236600461165e565b60036020526000908152604090205481565b34801561035057600080fd5b50610359610bc9565b60405161015691906117c1565b61026a610c2b565b34801561037a57600080fd5b506101427f000000000000000000000000000000000000000000000000000000000000000081565b61026a6103b036600461165e565b610c37565b3480156103c157600080fd5b5061026a610caa565b3480156103d657600080fd5b506101426103e53660046117d4565b610f7f565b336001600160a01b037f000000000000000000000000000000000000000000000000000000000000000016146104555760405162461bcd60e51b815260206004820152600b60248201526a4e6f7420666163746f727960a81b60448201526064015b60405180910390fd5b600160005460ff16600381111561046e5761046e611687565b146104ad5760405162461bcd60e51b815260206004820152600f60248201526e4e6f7420696e2070726f677265737360881b604482015260640161044c565b60015483146104f65760405162461bcd60e51b81526020600482015260156024820152740a0d8c2f2cae440c6deeadce840dad2e6dac2e8c6d605b1b604482015260640161044c565b80831461053c5760405162461bcd60e51b81526020600482015260146024820152730a6c6dee4ca40c6deeadce840dad2e6dac2e8c6d60631b604482015260640161044c565b60005b8381101561063c576002600086868481811061055d5761055d6117ed565b9050602002016020810190610572919061165e565b6001600160a01b0316815260208101919091526040016000205460ff166105cc5760405162461bcd60e51b815260206004820152600e60248201526d2ab735b737bbb710383630bcb2b960911b604482015260640161044c565b8282828181106105de576105de6117ed565b90506020020135600360008787858181106105fb576105fb6117ed565b9050602002016020810190610610919061165e565b6001600160a01b031681526020810191909152604001600020558061063481611819565b91505061053f565b5060008367ffffffffffffffff81111561065857610658611832565b604051908082528060200260200182016040528015610681578160200160208202803683370190505b50905060005b848110156106f2578585828181106106a1576106a16117ed565b90506020020160208101906106b6919061165e565b8282815181106106c8576106c86117ed565b6001600160a01b0390921660209283029190910190910152806106ea81611819565b915050610687565b5060005b815181101561083b57600061070c826001611848565b90505b8251811015610828576003600084848151811061072e5761072e6117ed565b60200260200101516001600160a01b03166001600160a01b03168152602001908152602001600020546003600085848151811061076d5761076d6117ed565b60200260200101516001600160a01b03166001600160a01b03168152602001908152602001600020541115610816578281815181106107ae576107ae6117ed565b60200260200101518383815181106107c8576107c86117ed565b60200260200101518484815181106107e2576107e26117ed565b602002602001018584815181106107fb576107fb6117ed565b6001600160a01b039384166020918202929092010152911690525b8061082081611819565b91505061070f565b508061083381611819565b9150506106f6565b506000479050600061086f827f00000000000000000000000000000000000000000000000000000000000000008551610fa9565b905060005b835181101561091a578151811080156108a65750600082828151811061089c5761089c6117ed565b6020026020010151115b15610908578181815181106108bd576108bd6117ed565b6020026020010151600460008684815181106108db576108db6117ed565b60200260200101516001600160a01b03166001600160a01b03168152602001908152602001600020819055505b8061091281611819565b915050610874565b506000805460ff191660021790556040517f2e5f0bf3d507ccf88adf4c4e85d98916ff3bb6f2128331f35f79aa18a080d8b69061095a9085908490611861565b60405180910390a160005b8351811015610b1d57600060046000868481518110610986576109866117ed565b60200260200101516001600160a01b03166001600160a01b031681526020019081526020016000205490506000811115610b0a576000600460008785815181106109d2576109d26117ed565b60200260200101516001600160a01b03166001600160a01b03168152602001908152602001600020819055506000858381518110610a1257610a126117ed565b60200260200101516001600160a01b03168260405160006040518083038185875af1925050503d8060008114610a64576040519150601f19603f3d011682016040523d82523d6000602084013e610a69565b606091505b5050905080610aac5760405162461bcd60e51b815260206004820152600f60248201526e151c985b9cd9995c8819985a5b1959608a1b604482015260640161044c565b858381518110610abe57610abe6117ed565b60200260200101516001600160a01b03167f7084f5476618d8e60b11ef0d7d3f06914655adb8793e28ff7f018d4c76d505d583604051610b0091815260200190565b60405180910390a2505b5080610b1581611819565b915050610965565b5050505050505050565b6000806000806000807f00000000000000000000000000000000000000000000000000000000000000007f00000000000000000000000000000000000000000000000000000000000000007f000000000000000000000000000000000000000000000000000000000000000060008054906101000a900460ff166003811115610bb257610bb2611687565b600154939a92995090975095509093504792509050565b60606001805480602002602001604051908101604052809291908181526020018280548015610c2157602002820191906000526020600020905b81546001600160a01b03168152600190910190602001808311610c03575b5050505050905090565b610c353334611404565b565b336001600160a01b037f00000000000000000000000000000000000000000000000000000000000000001614610c9d5760405162461bcd60e51b815260206004820152600b60248201526a4e6f7420666163746f727960a81b604482015260640161044c565b610ca78134611404565b50565b336001600160a01b037f0000000000000000000000000000000000000000000000000000000000000000161480610d095750336001600160a01b037f000000000000000000000000000000000000000000000000000000000000000016145b610d465760405162461bcd60e51b815260206004820152600e60248201526d139bdd08185d5d1a1bdc9a5e995960921b604482015260640161044c565b6000805460ff166003811115610d5e57610d5e611687565b1480610d805750600160005460ff166003811115610d7e57610d7e611687565b145b610dbc5760405162461bcd60e51b815260206004820152600d60248201526c10d85b9b9bdd0818d85b98d95b609a1b604482015260640161044c565b6000805460ff191660031781556040517f50551f1cb04e981d3d0ae00631c75baff563f41fcc0f34befba8e94ce7aa0a959190a160005b600154811015610ca757600060018281548110610e1257610e126117ed565b60009182526020808320909101546001600160a01b0316808352600290915260409091205490915060ff1615610f6c576001600160a01b038116600081815260026020526040808220805460ff19169055519091907f0000000000000000000000000000000000000000000000000000000000000000908381818185875af1925050503d8060008114610ec1576040519150601f19603f3d011682016040523d82523d6000602084013e610ec6565b606091505b5050905080610f075760405162461bcd60e51b815260206004820152600d60248201526c1499599d5b990819985a5b1959609a1b604482015260640161044c565b816001600160a01b03167f7084f5476618d8e60b11ef0d7d3f06914655adb8793e28ff7f018d4c76d505d57f0000000000000000000000000000000000000000000000000000000000000000604051610f6291815260200190565b60405180910390a2505b5080610f7781611819565b915050610df3565b60018181548110610f8f57600080fd5b6000918252602090912001546001600160a01b0316905081565b6060808360ff16600203610ffc5760408051600180825281830190925290602080830190803683370190505090508481600081518110610feb57610feb6117ed565b6020026020010181815250506112dc565b8360ff16600403611096576040805160028082526060820183529091602083019080368337019050509050606461103486603c6118b8565b61103e91906118cf565b81600081518110611051576110516117ed565b60200260200101818152505080600081518110611070576110706117ed565b60200260200101518561108391906118f1565b81600181518110610feb57610feb6117ed565b8360ff1660080361118b5760408051600380825260808201909252906020820160608036833701905050905060646110cf8660326118b8565b6110d991906118cf565b816000815181106110ec576110ec6117ed565b6020908102919091010152606461110486601e6118b8565b61110e91906118cf565b81600181518110611121576111216117ed565b60200260200101818152505080600181518110611140576111406117ed565b60200260200101518160008151811061115b5761115b6117ed565b60200260200101518661116e91906118f1565b61117891906118f1565b81600281518110610feb57610feb6117ed565b60408051600480825260a08201909252906020820160808036833701905050905060646111b98660286118b8565b6111c391906118cf565b816000815181106111d6576111d66117ed565b602090810291909101015260646111ee8660196118b8565b6111f891906118cf565b8160018151811061120b5761120b6117ed565b602090810291909101015260646112238660146118b8565b61122d91906118cf565b81600281518110611240576112406117ed565b6020026020010181815250508060028151811061125f5761125f6117ed565b60200260200101518160018151811061127a5761127a6117ed565b602002602001015182600081518110611295576112956117ed565b6020026020010151876112a891906118f1565b6112b291906118f1565b6112bc91906118f1565b816003815181106112cf576112cf6117ed565b6020026020010181815250505b80518360ff1610156113fa5760008360ff1667ffffffffffffffff81111561130657611306611832565b60405190808252806020026020018201604052801561132f578160200160208202803683370190505b5090506000805b8560ff168110156113b257838181518110611353576113536117ed565b602002602001015183828151811061136d5761136d6117ed565b60200260200101818152505083818151811061138b5761138b6117ed565b60200260200101518261139e9190611848565b9150806113aa81611819565b915050611336565b50808711156113f0576113c581886118f1565b826000815181106113d8576113d86117ed565b602002602001018181516113ec9190611848565b9052505b5091506113fd9050565b90505b9392505050565b6000805460ff16600381111561141c5761141c611687565b146114545760405162461bcd60e51b81526020600482015260086024820152672737ba1037b832b760c11b604482015260640161044c565b6001600160a01b03821660009081526002602052604090205460ff16156114ae5760405162461bcd60e51b815260206004820152600e60248201526d105b1c9958591e481a9bda5b995960921b604482015260640161044c565b60015460ff7f0000000000000000000000000000000000000000000000000000000000000000161161150f5760405162461bcd60e51b815260206004820152600a60248201526913585d18da08199d5b1b60b21b604482015260640161044c565b7f000000000000000000000000000000000000000000000000000000000000000081146115705760405162461bcd60e51b815260206004820152600f60248201526e57726f6e6720656e7472792066656560881b604482015260640161044c565b6001600160a01b038216600081815260026020526040808220805460ff19166001908117909155805480820182559083527fb10e2d527612073b26eecdfd717e6a320cf44b4afac2b0732d9fcbe2b7fa0cf60180546001600160a01b03191684179055517f31e760aa525306aba638a784082a013b6a1cc0a9a1789f3f22281c0453b10b1f9190a260015460ff7f000000000000000000000000000000000000000000000000000000000000000016900361165a576000805460ff191660011781556040517faa227b1595385e073aaa86fb89b56070b22b7f4fe69c10dfd6f627e8c42d009c9190a15b5050565b60006020828403121561167057600080fd5b81356001600160a01b03811681146113fd57600080fd5b634e487b7160e01b600052602160045260246000fd5b60208101600483106116bf57634e487b7160e01b600052602160045260246000fd5b91905290565b60008083601f8401126116d757600080fd5b50813567ffffffffffffffff8111156116ef57600080fd5b6020830191508360208260051b850101111561170a57600080fd5b9250929050565b6000806000806040858703121561172757600080fd5b843567ffffffffffffffff8082111561173f57600080fd5b61174b888389016116c5565b9096509450602087013591508082111561176457600080fd5b50611771878288016116c5565b95989497509550505050565b600081518084526020808501945080840160005b838110156117b65781516001600160a01b031687529582019590820190600101611791565b509495945050505050565b6020815260006113fd602083018461177d565b6000602082840312156117e657600080fd5b5035919050565b634e487b7160e01b600052603260045260246000fd5b634e487b7160e01b600052601160045260246000fd5b60006001820161182b5761182b611803565b5060010190565b634e487b7160e01b600052604160045260246000fd5b8082018082111561185b5761185b611803565b92915050565b604081526000611874604083018561177d565b82810360208481019190915284518083528582019282019060005b818110156118ab5784518352938301939183019160010161188f565b5090979650505050505050565b808202811582820484141761185b5761185b611803565b6000826118ec57634e487b7160e01b600052601260045260246000fd5b500490565b8181038181111561185b5761185b61180356fea26469706673582212203dc0ad4cea523abe84b943052f40f189ef7888e1b9257a472ec93520b555dc9b64736f6c63430008140033",
  "linkReferences": {},
  "deployedLinkReferences": {}
}